S02B00006275696C642F64656275672F73656E736F72795F77616B657570776F72645F7365726965735F312EFC
S21400000000100020490700004507000045070000D3
S21400001045070000450700004507000045070000AB
S214000020450700004507000045070000450700009B
S214000030450700004507000045070000450700008B
S214000040450700004507000045070000450700007B
S214000050450700004507000045070000450700006B
S21400006045070000C50A00004507000045070000D8
S2140000706D290000792900004507000045070000AB
S214000080450700004507000045070000450700003B
S214000090450700004507000045070000450700002B
S2140000A0450700004507000045070000450700001B
S2140000B04507000045070000AD2500004507000085
S2140000C045070000450700004507000045070000FB
S2140000D045070000450700004507000045070000EB
S2140000E045070000450700004507000045070000DB
S2140000F045070000450700004507000045070000CB
S21400010045070000450700004507000010B5054CF0
S214000110237833B9044B13B1044800E000BF012331
S214000120237010BD90110020000000000C6102003A
S21400013008B5034B1BB10349034800E000BF08BDE8
S21400014000000000941100200C610200A3F5803A24
S214000150704700BF174B002B08BF134B9D46FFF799
S214000160F5FF00218B460F461348144A121A02F078
S2140001701DFE0E4B002B00D098470D4B002B00D0D9
S21400018098470020002104000D000D48002802D0EA
S2140001900C4800E000BF02F0E5FD2000290002F058
S2140001A032FB02F0CBFD00BF00000800000000009C
S2140001B00000000000100020901100208067002042
S2140001C000000000000000000F207047082808B557
S2140001D017D00CDC022803DC002803DC0E2008BD48
S2140001E00428FBD101230422092105200DE0202844
S2140001F00FD0402811D01028F0D1012304220E2160
S214000200F3E7012304220A21184601F033FA0020FE
S214000210E5E7012304220821E7E7012304220A2157
S214000220E3E7000008B50648012100F013FD02F0E0
S214000230F4FA4020FFF7CAFFBDE8084000F0E8B92E
S21400024000350A000148012100F004BD00350A000F
S214000250F0B54B1E012B8BB007460E4676D83C4DAC
S2140002600FCD01AC0FC40FCD0FC42B6839482360E7
S214000270012100F0EFFC3848384C012100F0EAFC80
S214000280002301220721022001F0F4F900230422B2
S2140002900821022001F0EEF90422002309210220A1
S2140002A001F0E8F905238DF804300123012E01A999
S2140002B020468DF818304FEA87174FF4407308BF72
S2140002C08DF82360ADF82030039701F0F8FB244B3F
S2140002D0A3670D23636700F079FB2248002100F036
S2140002E045FB044618B1012420460BB0F0BD1E4A5B
S2140002F0D37823F03C0343F03403D370D37C23F04D
S2140003003C0343F03403012ED37412D10146174840
S21400031000F02CFB0028E6D1154AD37823F03C03E6
S21400032043F03403D370D37C23F03C0343F0340310
S214000330D374104B104A1E70002313700F4A1370AC
S2140003400F4A13700F4B01221A70CDE72124CBE71A
S214000350DCD1000000350A00005204000004014011
S2140003600B000B0BB011002000100020B411002071
S21400037020100020BA110020BB110020D41100204C
S214000380B9110020B8110020184B1B7873B5002B4C
S21400039028D0174D2C783CBB164A174E11681369A7
S2140003A01648314001433340116003431449154851
S2140003B09160136191610094134B1449006800F03A
S2140003C03BFB134B1B78012B07D112480094124AB3
S2140003D012490068234600F02FFB01232B700020F3
S2140003E002B070BD1120FBE70220F9E7B81100202B
S2140003F0B9110020001000200F80FFCFF07F0030E2
S214000400C8110020B0110020F104000040100020A8
S214000410BA110020B4110020201000205010002037
S214000420184B1B782DE9F04104460D4616461BB3C3
S214000430154B1B7813BB154F3B78FBB9DFF8608074
S21400044098F800304B43B3F5006F19D8104B1B7863
S2140004500BB9FFF799FF98F800000E4B6843186039
S2140004600D4B1C6004EB40045C600C4B1E600123CB
S2140004703B700020BDE8F0811120FBE70220F9E781
S2140004802120F7E7B8110020BB110020D41100206E
S214000490B9110020C0110020CC110020AC110020A2
S2140004A0BA11002010B50C4C237893B10B4B18688A
S2140004B000F0E8FA0A4B1B78012B03D1094B1868A9
S2140004C000F0E0FA084B00201870084B20701870F7
S2140004D010BD0220FCE700BFB9110020B0110020BB
S2140004E0BA110020B4110020BB110020D411002046
S2140004F0F8B53B4D2B78002B42D03A483A4E11F0D7
S214000500010F00F1100308BF1946384B32681C680B
S21400051018BF0146A2422CD2CB786FF30513CB70DE
S214000520334B1B6803EB42038B60A31AB3F5006FD3
S2140005300B8817D940F2FF7464F30E1302F50062BD
S2140005400B803260C37803F03003302B08D1C37CB5
S21400055003F03003302B03D100232B70FFF7A2FFEC
S2140005600120F8BD671EBA1A62F30E130B803460C2
S214000570E8E70A681F4B13430B601F4B8B60E1E7ED
S2140005801E4B1B78002BEBD01648C94301F0010325
S21400059000EB03141D01E278C2F30112032A0FD107
S2140005A0124A46591268013AC2F30A01144A324006
S2140005B042EA01124251134A52F82330A360CFE7B1
S2140005C0114A1268002ACBD01049084809780068FA
S2140005D0B0FBF1F10B4850F823009047C0E700BF8E
S2140005E0BB11002000100020C4110020C011002004
S2140005F0BC110020F07F0030C8110020D41100206C
S2140006000F80FFCFCC110020AC110020BA110020C3
S2140006102DE9F0433B4D3C4FDFF80091DFF80081B9
S2140006200FCD89B001AC0FC495E80700374D84E8BC
S21400063007003748012100F00DFB38460121012450
S21400064000F008FB334B039301A928468DF81240AF
S21400065001F0EEF92346042200210A2001F00AF8F0
S2140006602246002302210A2001F004F82346042231
S2140006700721052000F0FEFF0422214623460A201B
S21400068000F0F8FF244BAB670B236B6702264FF492
S214000690487001F0C1FFC9F8EC61142001F0BCFFFE
S2140006A0C8F8EC61232001F0B7FFC9F8EC61B92166
S2140006B0284601F034FA00231A461946C8F8EC61B9
S2140006C00A2000F0D7FF00231A4631460A2000F021
S2140006D0D1FF234600220721052000F0CBFF23464A
S2140006E0002221460A2000F0C5FF284601F030F916
S2140006F00021A9673846696700F0ACFA09B0BDE882
S214000700F08300BF00D20000006204000008014031
S21400071000350A0000127A001E1D001200A00044D8
S21400072000A0004605490A681318054883428CBF96
S2140007304FF0FF320B601046704700BF601000207D
S21400074000000420FEE7000008B500F083F8124B16
S21400075012498B4212D3124B124900208B4218D3F7
S214000760FFF7F8FC186850F82240586840F8224016
S214000770013298688242F5D30C33EAE70022F8E7A4
S2140007801C6844F8220001325C68A242F8D30833A1
S214000790E4E70022F8E700BF1461020020610200CF
S2140007A020610200206102000048704700F0490204
S2140007B0104AD2F8943003F00703023B032B13D8F9
S2140007C0DFE803F00C14020E0B4B1B68D2F8000196
S2140007D0C0F304200130B3FBF0F07047074BF4E79A
S2140007E0074B1B685B08F1E7054BEEE74FF4004349
S2140007F0ECE700BF00400E4070100020681000209C
S2140008006C10002008B5FFF7D3FF054BD3F808316E
S214000810C3F308230133B0FBF3F0024B186008BDA6
S21400082000400E4064100020014B1868704700BF5F
S21400083068100020054B1860054BD3F8943003F081
S2140008400703022B01D1FFF7DDBF704768100020B9
S21400085000400E40044B054A9A60D3F8882042F4C4
S2140008607002C3F88820704700ED00E0000000002A
S2140008704FF4004070474FF47A707047014B186889
S214000880704700BF70100020D0E900031847836847
S21400089000681847C36800681847000010B50121B3
S2140008A00446094800F0D6F90848012100F0D2F9BC
S2140008B0A37820786178B3FA83F35B09042200F00A
S2140008C0D9FE002010BD00BF4041050000350A00DB
S2140008D0437810B5012204780C219A40302313FB8C
S2140008E00413817803F1804303F5204319B903F11B
S2140008F080631A6010BD03F1C063FAE7437810B551
S214000900012204780C219A40302313FB04138178CB
S21400091003F1804303F5204319B903F1C0631A605D
S21400092010BD03F18063FAE74178037801228A401C
S21400093030214B4303F1804303F520439A6170470F
S214000940024600780C21302313FB001303F10473D6
S214000950517803F5204301EBC3039B001868937896
S214000960C0B213B9B0FA80F04009704738B5124BE0
S2140009701B780546DBB1E0B100F0CBFD0F4A002343
S2140009801146147B54B92B601A0101EB03130125A1
S2140009908C501D7300F0C3FD204638BD0133082B74
S2140009A002F11002EDD100F0BAFD0548F5E7054862
S2140009B0F3E70548F1E700BF58130020D8110020E0
S2140009C0048000F0028000F0018000F013B5164BA2
S2140009D01868019000238DF8043000F09AFD134B40
S2140009E01C7824B100F09BFD114802B010BD012216
S2140009F01A7000F094FD0F4B1C731C7783F82C4084
S214000A0083F83C4083F84C4083F85C4083F86C40A5
S214000A1083F87C4004230DEB03008DF8073000F0CC
S214000A2065FE2046E1E700BF1CD2000058130020F8
S214000A30038000F0D8110020F8B50D4D2D7885B153
S214000A40072810DC0B4D05EB00140601277B67B169
S214000A50AB51069B63600025A56000F071FE28463A
S214000A60F8BD0548FCE70548FAE70548F8E700BF83
S214000A7058130020D8110020028000F0018000F0FA
S214000A80078000F00A4A127808B552B107280AD83B
S214000A90084A02EB00131B7B3BB100F0A3FE0020CC
S214000AA008BD0548FCE70548FAE70548F8E700BF33
S214000AB058130020D8110020028000F0018000F0BA
S214000AC0078000F02DE9F843DFF86480D8F86070FE
S214000AD0D8F86C301F4000D5FEE7144CDFF8549071
S214000AE001260025374217D02368C8F868609BB1F6
S214000AF0A16862680131A16028469847637B012B94
S214000B000AD148B909EB45131A7B60F341021A7300
S214000B101A7F60F341021A770135082D4FEA460620
S214000B2004F11004DED1BDE8F88300BFD811002020
S214000B3000200E40581200200C4B984210D90C4B47
S214000B40984210D9022201230A490B640A49D1F8B7
S214000B50003123F0807343EA0263C1F80031704726
S214000B6000221346F0E70122FBE700BF0048E80139
S214000B700090D0030000C84300400E400F4B5B6857
S214000B800F4B30B500221C46C9B21D798D4202D1EA
S214000B901D6885420DD20132052A03F10803F4D1FF
S214000BA0032206494B6823F0407343EA02634B6016
S214000BB030BD04EBC2025279F3E700BF00000E40DE
S214000BC04CD2000070B5084C41F67136256C266490
S214000BD0FFF7EAFD0021FFF7D1FFADB2B5421CBF1B
S214000BE00023236470BD00BF00000E40044BDB6B87
S214000BF05B0604D4034AD2F8C830002BFBD17047FA
S214000C0000300E400000C64308B5FFF7EFFF024B6A
S214000C105868C0F3014008BD00300E40044BD3F8BE
S214000C204421D20703D4D3F840211042FBD17047A9
S214000C3000400E4070B5064C41F67136256C2664B1
S214000C40FFF79CFFADB2B5421CBF0023236470BD06
S214000C5000000E4038B5C0F30323013B092B16D81D
S214000C60DFE803F02616151505191C151F23124C70
S214000C700023C0F3043513B11846FFF7CFFF04F185
S214000C80424404F5801405EBC404A400216038BD7A
S214000C900A4C0023EDE70A4C0123EAE7094C10232F
S214000CA0E7E7094C4FF48033E3E7084C0023E0E71E
S214000CB0074C0023DDE700BFB0400E40C0400E40AA
S214000CC0E0400E40E8400E40F0400E4050410E40DE
S214000CD000400E40C0F30313013B092B2AD8DFE87F
S214000CE003F0050B0F1929291F23374B274BD3F881
S214000CF00001C0F304207047244BD3F81401F8E732
S214000D00224BD3F80001C0F30060431C012098403A
S214000D10013870471D4BD3F80C01C0F3082070470C
S214000D201A4BD3F80801F8E7194B984204D0194B30
S214000D30984207D000207047144BD3F8203103F0B8
S214000D400F03E3E7114BD3F82031C3F30113DDE7BC
S214000D50114B98420CD003F5B01303F5805398421C
S214000D60E8D10A4BD3F82801C0F30120031DCDE7D4
S214000D70064BD3F82831E8E7084B9842DAD1034B04
S214000D80D3F8300100F00300704700BF00400E406B
S214000D908006160080162E0090171A00A009140070
S214000DA008B5FFF797FF013008BD000000F00F0000
S214000DB00138072844D8DFE800F0040F1943232D34
S214000DC04335244BD3F8943003F00703023B052B3E
S214000DD038D8214AD05C70471E4BD3F8803003F0D9
S214000DE00703013B032B2FD81C4AF3E7194BD3F814
S214000DF0843003F00703013B032B25D8184AE9E7A4
S214000E00144BD3F8883003F00703013B032B1BD8A1
S214000E10144ADFE70F4B1B6F13F0010F0CBF0720C0
S214000E20092070470B4BD3F85C3103F03003202BBE
S214000E300CD0302B0CD0102B14BF0120072070478D
S214000E400020704705207047012070470420704737
S214000E500820704700400E4020D2000026D2000036
S214000E602AD2000026D2000008B50146FFF79EFFF2
S214000E701A4B994211D01A4B994212D0194B9942EB
S214000E8004D1194BD3F8800000F00700013803287E
S214000E9021D8DFE800F00A0E1612134BD3F88400B0
S214000EA0F2E7114BD3F88800EEE7BDE80840FFF7FD
S214000EB0DFBCBDE80840FFF7E1BCBDE80840FFF72F
S214000EC0DABCFFF775FC084BD3F80031C3F30063B8
S214000ED00133D84008BD0020FCE700BF0300200017
S214000EE00500240002001E0000400E4000F47813A7
S214000EF0B3F5B01F10B5044674D025D8B3F5402F0F
S214000F005ED010D8B3F5802F49D005D83BB1B3F5E5
S214000F10003F4FD0002010BDB3F5202FFAD1BDE81A
S214000F201040FFF745BCB3F5801F00F08480B3F592
S214000F30A01F4DD0B3F5602FECD14A48FFF736FF1F
S214000F40072878D00928E9E7B3F5381F53D013D817
S214000F50B3F5001F58D00AD8B3F5D01F56D0B3F556
S214000F60F01FD7D14048BDE81040FFF77DBFB3F56E
S214000F70101FCFD13D48F6E7B3F5481F4DD0B3F567
S214000F80781F65D0B3F5401FC4D13948FFF76CFF12
S214000F90384BD3F82831C3F30123043320E0FFF79E
S214000FA007FC344BD3F80C31C3F308230133B0FBF2
S214000FB0F3F0B0E7FFF7FCFB2E4BD3F80831F3E76E
S214000FC0FFF7F6FB2B4BD3F81431C3F30423EDE7FE
S214000FD02648FFF749FF274BD3F8303103F00303C9
S214000FE0D84098E72048FFF73FFF224BD3F8203140
S214000FF003F00F03F4E71C48FFF736FF1D4BD3F84A
S2140010002031C3F30113EBE71948ACE71848FFF7A4
S2140010102BFF184BD3F82831F3E71748FFF7C6FE27
S214001020072808D0082809D004287FF473AFBDE845
S2140010301040FFF7F9BB114B18686CE7FFF7B8FBD9
S2140010400C4BD3F80031C3F3042303FB000062E724
S214001050FFF7AEFB01462046FFF7A2FEB1FBF0F01D
S21400106059E700BF06000E0002001E00050024001F
S2140010700300200000400E40B8003200741000202C
S214001080014B1880704700BF78100020013810B55B
S214001090032812D8DFE800F0022E1220214AC1F3FE
S2140010A00801D2F86838002BFBD11F4A136A23F4D4
S2140010B0FF7323F001031943116210BD194A01F0B2
S2140010C07F01D2F86038002BFBD1174A136923F052
S2140010D07F0319431161F0E7124A01F07F01D2F84D
S2140010E06438002BFBD1104A936923F07F03194321
S2140010F09161E2E70C4AD2F89030536A23F030034D
S21400110043F010035362146B084BC1F3C310033053
S2140011100F2803EA040328BF0F20194341EA007191
S2140011201163CAE70020C84300400E4000F8FF0FD6
S214001130104A536A13F0300F18D0202913D03029E4
S21400114014D000290C4B08BF4FF44003D2F890107F
S21400115033EA0101FAD15B0246BFD2F8A000C0F321
S2140011608020012070474FF40003EFE74FF4400360
S214001170ECE700BF00400E40FF33E10702280AD12B
S21400118029B1064B4FF48060C3F8A800596612B127
S2140011900220FFF7CDBF0120704700BF00400E4081
S2140011A00428F8B545D8314B314F13F800C0314B01
S2140011B01B5C002943D0304C022834F8106039D12B
S2140011C07C6A14F0300F35D12C4CE46B7C6AE40753
S2140011D005D57D6A25F0300545F010057D62244C66
S2140011E02666274C23449B001D68002DFCD002B3C6
S2140011F06444A4002368002BFCD0022819D1C1B196
S2140012001B4D696A11F0010116D001222021FFF75B
S214001210B5FFD5F89C70012200210220FFF7C0FF21
S214001220C7F30A010220FFF731FF2E662368002B62
S214001230FCD0F8BD0021D2E7FFF77AFFE9E71149B5
S21400124031F810103966012101FA03F3D7F890102F
S2140012501942FBD1002AECD00124054A04FA0CF40A
S214001260D2F890302342FBD1E3E700BF2ED2000035
S21400127000400E4033D2000038D2000000300E404E
S2140012808004F21042D20000112838B50C4615D062
S21400129000F00F000138072869D8DFE800F02B04BB
S2140012A064686283688E5E4D013C092C5FD8DFE877
S2140012B004F0775F665E5E6D5E5E5E5C042912D14A
S2140012C0FFF7B2FA0546A8B10021284600F098F9C3
S2140012D0023C0A2C4BD8DFE804F03F3C30364A4A42
S2140012E04A4A4A0F4200052904D14E4B1D684E4B10
S2140012F09D42E9D80025EBE703200524012211468C
S214001300FFF74EFFFFF75EFC0DB1FFF76FFC474B94
S2140013105C67FFF777FA0446FFF74AFAFFF70CFC1C
S214001320FFF772FC01462046FFF784FCFDB928460D
S2140013300121BDE8384000F063B93D48FFF7FCFBEB
S21400134002200446DAE73A48FFF7F6FB01240320BA
S214001350D4E701200324D1E700200424CEE70724A5
S214001360D0E7344DA0E7344D9EE704232B6038BD0C
S214001370012211460020FFF713FF0223F6E70122A1
S21400138011461046FFF70CFF0123EFE7FFF710FAB0
S214001390FFF7D2FB294B0122C3F808260323E5E713
S2140013A00023E3E7072904D00929E0D11F4B0122D7
S2140013B001E01E4B00221A67D9E74C1E072CD6D830
S2140013C001A353F824F000BF1B1400006F130000A5
S2140013D06F1300000D1400006F1300006F13000061
S2140013E0FF130000E913000003221049D1F85C3116
S2140013F023F0300343EA0213C1F85C31B7E7012259
S21400140011460420FFF7CCFE0122EEE7012211462A
S2140014100220FFF7C5FE0222E7E70022E5E700BF4D
S21400142080400E406C100020002D310100400E4020
S2140014300148E80188400E4084400E400010C84332
S21400144010B504461120FFF7B1FC0021012202204E
S214001450FFF7A6FE184A217C536A23F001030229EF
S21400146008BF43F001035362144B2178C3F8A0145D
S214001470637AA18843EAC123D362136BA07A217AE8
S21400148003F07F630343E08843EAC02343EAC113C3
S21400149003310F2928BF0F2143EA01731363A37B8F
S2140014A0617B1B0143EA0133E17B0B43217B43EA6B
S2140014B00143536310BD00BF00400E400000C84308
S2140014C038B50E4D01461120FFF770FCAA6B0C4B89
S2140014D00C7813401C434B7844EAC3248B7844EAC8
S2140014E00364CB7844EA0324AB6BA34205D0002107
S2140014F001220846FFF754FEAC6338BD00400E409C
S21400150080E4FFF8EFF3108072B6704700B962B659
S2140015107047EFF31180602383F31188704780F3E0
S21400152011887047034BD86B80F04000C0F38010E2
S214001530704700BF00300E4008B5FFF7F3FF20B13C
S214001540024AD2F8C830002BFBD108BD0000C643C3
S2140015500378134A002B437870B514BF0426002680
S214001560002B8378946914BF02250025002B03798D
S21400157024F03F0443EA0403C47814BF0821002182
S214001580012C08BF43F0010333432B430B43936105
S2140015901368417923F4403343EA0143136070BD76
S2140015A000300E4070B504460E46FFF7BBFF10B382
S2140015B0FFF7C2FF104B5B68C3F301439C421AD08F
S2140015C00E4BD3F80031FFF7F3F8022C054602D194
S2140015D02146FFF72FFBC4F1020210239340064A70
S2140015E013610EB1FFF7A8FF2CB921462846BDE8C7
S2140015F07040FFF71FBB70BD00300E4000400E402D
S21400160013B50246FFF78EFFC8B152B90D4B0191D4
S214001610D3F80041FFF7CCF8C4F30422019902FB8B
S2140016200002094B1B7843B1084B9A4205D80220AA
S21400163002B0BDE81040FFF7B5BF0020F8E702B0E3
S21400164010BD00BF00400E4059130020002D310190
S21400165070B505460E461446FFF754FF296881EA22
S214001660040202EA06044C402C60BDE87040FFF716
S2140016704DBF000000EB4000F8B50D461F460401C4
S21400168016463AB1164801238B402044CFB100F1EC
S214001690C0600360072D4FF00F0115D8AB0011484E
S2140016A006FA03F299402044FFF7D2FF46B90C4AE7
S2140016B0012101FA05F5224477B102F1C0621560F6
S2140016C0F8BD00F18060E4E7A5F108039B0006483A
S2140016D006FA03F29940E6E702F18062EFE700BF00
S2140016E00CA0004004A0004008A0004010B504462E
S2140016F001214FF4AA40FFF7ADFAB4F80130227882
S2140017005BBA9BB243EA02630B4A13600023136280
S214001710D36253634FF00043D3664FF0FF339366B4
S214001720064A4FF40071C2F88011E3785B01DBB221
S21400173082F80933116010BD00200E4000E100E081
S2140017402DE9F041C3B201259D40CB7A8F7A234E16
S214001750D1F800E00C464FF03008097B94F80DC035
S214001760B5661B0508FB006043EA074343EA41539E
S21400177022F00302C0F880E0C0F888C0C0F88430C9
S214001780C0F89820FFF7C5FEF36E2B43F366237A66
S21400179013B1736B2B437363637A13B1F36A2B43F2
S2140017A0F3620E4B1A68237923B1DB431B0263F402
S2140017B07F431A4063790BB142EA0322A3790BB147
S2140017C022EA0302E3791A43044B1A60044A95623C
S2140017D0DD63BDE8F041FFF7A2BE00BF00200E406B
S2140017E000200E4410B5C0B201248440FFF791FEDD
S2140017F0054AD36E23EA0403D366044B1C62BDE895
S2140018001040FFF78CBE00BF00200E4000200E44A4
S2140018108B784A789B0143EA82030A781343CA7896
S21400182043EA02130A7943EAC2234A7943EA0233B7
S2140018308A79043043EA42430001014A1350704754
S21400184000200440014B1860704700BF000084422F
S214001850427801790378002A827870B514BF04268E
S2140018600026002AC27814BF10250025002A4279D7
S2140018704FEA023242EA012242EA0302837914BFA7
S21400188020240024002BC37942EA034343EA0603DC
S214001890027A43EA050314BF4FF4004100212343B4
S2140018A0002A14BF4FF4003200220B431343014AB0
S2140018B0136070BD0020044070B5054616461C46F1
S2140018C019B91448FFF712FB0146402C1BD003D869
S2140018D0DCB1202C1BD070BD602CFCD1042303FB94
S2140018E006F2560806EB4113B3FBF2F30A4A203B16
S2140018F002EAC3032A6822F060022A602A681443B8
S2140019002C606B61E7E70623E9E71023E7E7082387
S214001910E5E700BF40410500F8FF7F0038B5054603
S214001920144619B90548FFF7E1FA01460139640083
S214001930B1FBF4F10902696138BD00BF4041050002
S214001940CB435B0003F00A03C360C160704700002E
S21400195040F6AA63C36041F20502002303604260BA
S214001960104A83604361C364826403664367836787
S214001970C3670D4B0D4A984209D0904207D003F535
S2140019800063984203D003F58063984201D1002398
S214001990036500239042836502D0054A904200D139
S2140019A0C3657047F9FF01000000014000040140D4
S2140019B0000C014038B5FFF7CBFF8B7C04460D4684
S2140019C01BB1036843F080430360EB7C1BB12B7DA7
S2140019D043F08003A3652A8A6B7B1343EA8913438B
S2140019E063602B7BD5E901122046FFF765FF6B7D10
S2140019F01BB1236843F480332360AB7D1BB123689F
S214001A0043F400432360EB7D2A7E1B07120502F495
S214001A10E00203F0E04313432366636F23F03003D2
S214001A206367626F6B7E134363672B78E36038BD32
S214001A3038B5FFF78DFF0D460A8A897B03680029B3
S214001A4042F0010214BF4FF48061002113430B43A0
S214001A502A7D03600368002A14BF4FF0005200225C
S214001A6013430360AB7C04461BB1EB7C43F080035E
S214001A7083652B7B43F480536360D5E901122046CF
S214001A80FFF74CFF6B7B0BB11023E3606B7D1BB144
S214001A90236843F480332360AB7D1BB1236843F493
S214001AA000432360EB7D2A7E1B07120503F0E0430C
S214001AB002F4E002134323662B78E36038BD70B56A
S214001AC000230C460E780B700546FFF7B1FF94F81E
S214001AD02020A38B94F821001343A27F002AE27FE4
S214001AE014BF10210021002A14BF0822002200285B
S214001AF014BF0220002003430B43134343F00103AB
S214001B00EB652EB131462846BDE87040FFF718BF9A
S214001B1070BD03691B06FCD5C069C0B27047036977
S214001B205A06FCD5416303699B06FCD5C069C0B262
S214001B30704703695B06FCD54163704713B5022303
S214001B400024684600948DF804408DF80530FFF7B1
S214001B50FFFC204602B010BD70B5164B86B001AA39
S214001B6003F11006154618685968144603C408336E
S214001B70B3422246F7D11B8823800F4BD3F8B420FC
S214001B8012030ED4D3F8B830C3F308030B48ADF8ED
S214001B900A30FEF74FFE2846FFF752FC002006B03C
S214001BA070BD074B1B884FF6FF72934208BF4FF479
S214001BB0A673EBE774D200000081E00F00F0490244
S214001BC00001E00F07B5084B18680190202301A814
S214001BD08DF80430FFF774FC6420FFF751FA0020FC
S214001BE003B05DF804FB00BF86D2000010B50C48B9
S214001BF00C4C6FF00402A02112F0800FD3B21BBF72
S214001C0003F00F03043BA3181B1802F101020CBFDC
S214001C1083F800131976332AEED1002010BD00BFDA
S214001C2000ED00E000E100E010B50446FFF76AFCB6
S214001C30024B1C60FFF76AFC002010BD5C130020FE
S214001C4010B5FFF75FFC034B1C68FFF75FFC2046F0
S214001C5010BD00BF5C13002007B530B9CDE90012F7
S214001C60FFF7EEFFDDE9001230B1436823B10068EC
S214001C7003B05DF804EB1847232003B05DF804FBBF
S214001C8030B51C4685B058B9CDE90012FFF7D8FF2D
S214001C90DDE9001204B903AC20B9232005B030BD3D
S214001CA003B903AC8568002DF7D023460068A84723
S214001CB0F4E700207047FEE74FF400534B60002027
S214001CC07047012070470020704707B5002001AB21
S214001CD00190FFF7D5FF0198002808BF4FF0FF30AE
S214001CE003B05DF804FB10B500201446FFF7B4FF00
S214001CF0204610BD80F82410704790F824007047E6
S214001D0070B504460568FFF79BFF844202D10020A9
S214001D10FFF78AFF95F92830002B11DB03F01F012F
S214001D205B099B0003F1604303F5614301228A408F
S214001D30C3F88021C3F88020BFF34F8FBFF36F8FA7
S214001D400023C4E90033C4E90433A3602846EB68E3
S214001D50BDE87040184790F8243070B505460C462C
S214001D608E18E3B9A6420AD095F82630002BF9D093
S214001D702B6814F8011B284698470028F2D070BD3F
S214001D8095F826305BB123780A2B03D12B680D21FA
S214001D90284698472B6814F8011B28469847B442F3
S214001DA0EED1ECE72DE9F7434FF0000904469046E4
S214001DB01E46C3F800904F1E3368434505D2FFF712
S214001DC0A8FBA269C2B9FFF7AAFB94F827305BB953
S214001DD0112301220DF1070120468DF80730FFF789
S214001DE0BAFF012384F827303368002B0CBF1B2072
S214001DF0002003B0BDE8F083E16922698A5C07F839
S214001E00012F2569226A01359542A26908BF4D4611
S214001E10013AA2612561FFF782FBA3682046984736
S214001E20336801333360C7E708B5FFF794FF002037
S214001E3008BD0000F8B51F46536805460C46164612
S214001E40002B3ED09368002B3DD02C22002120464C
S214001E5000F0ACFF7368E361B3682362337B84F8F9
S214001E602430B37B84F8253040F20113E384069BCC
S214001E706360079BA360089B2760E36096F90030C9
S214001E80124A84F828306A60114AAA60114A2A6108
S214001E90114A6A61002B114A2C60EA600CDB03F0E1
S214001EA01F015B099B0003F1604303F561430122B8
S214001EB08A40C3F880211A602846FFF7B5FE002046
S214001EC0F8BD2220FCE72120FAE700BF291E00000B
S214001ED0A51D0000F51C0000FB1C0000011D0000F5
S214001EE010B50446FFF715FBA269236A9A4203D28F
S214001EF0FFF715FB012010BDFFF711FB0020FAE7E6
S214001F0037B504460D4600E000BFFFF702FB94F825
S214001F10253002466BB1132D07D1002384F82630F6
S214001F2003B0BDE83040FFF7FABA112D01D1012306
S214001F30F4E76369E169CD54A16963690131A16180
S214001F40216A01338B42636104BF0023636110463C
S214001F50FFF7E5FAA269236A9A420BD113230122FE
S214001F600DF1070120468DF80730FFF7F4FE002339
S214001F7084F8273003B030BDC26AD36C43F0040344
S214001F80D3647047C26A10B5044613695906FCD577
S214001F9000231A4694F8351094F83400FFF76AFBCD
S214001FA000231A4694F8371094F83600FFF762FBC1
S214001FB094F83C30DA0707D5002394F8391094F8E3
S214001FC038001A46FFF756FB94F83C309B0707D5B7
S214001FD0002394F83B1094F83A001A46FFF74AFBA1
S214001FE0E06A0021FFF7ACFC206B0021FEF732FE12
S214001FF0002010BD08B5C06AFFF79BFD002008BD95
S2140020002DE9F04186B01C46524B0C9D0293524B74
S2140020100193012600230093CDE903664F4B9046BB
S2140020200A462946FFF706FF0746002856D12368CA
S214002030EB6263682B63637A85F83530237A85F81C
S2140020403430E37A85F83730A37A85F83630637B08
S21400205085F83930237B85F83830E37B85F83B30CC
S214002060A37B85F83A303E483146FEF7F3FD3D48FF
S2140020703146FEF7EFFD617A207A33460422FFF7F9
S214002080F9FA33460222E17AA07AFFF7F3FA60689B
S2140020903146FEF7DFFD88F8007041462068FFF7FE
S2140020A089FC2268536F43F003035367936F617C88
S2140020B023F4F85323F01F030B43217C43EA012348
S2140020C003219367516785F83C7098F81930202BE8
S2140020D02BD007D803B3102B09D02327384606B0D9
S2140020E0BDE8F081302BF8D185F83C1002E085F889
S2140020F03C603E4600230222617B207BFFF7BAFA53
S2140021002368A27CDA675A6E42F004025A665A6F57
S21400211042F010025A675EB92068C36C43F00403AD
S214002120C3640521FFF70CFCD8E7022385F83C3092
S214002130E17BA07B00230422FFF79CFA2368E17C66
S214002140DA6F42EA0122DA675A6F42F020025A67D3
S214002150E2E700BF851F0000791F0000F51F0000A2
S2140021604041050000350A00C36A1B691B0610B50E
S214002170044610D5FFF7B4FE40B1E06AFFF7C9FC8D
S21400218001462046BDE81040FFF7BABEE26AD36CAF
S21400219023F00403D36410BD30B50F4C41612368AF
S2140021A0ABB92060836011E0891A9A6841611D46C8
S2140021B02AB113465A698A42F6D955B11A46A8601A
S2140021C01346836013B15A69511A596130BD002510
S2140021D0F0E72060F5E700BF7813002010B500F0A8
S2140021E083F90A4C0A4B19682368C31A01B10BB964
S2140021F0206010BD4A699A422EBFD21A9B1A00224E
S2140022004A6128BF00238968F0E700BF64130020F6
S2140022107813002038B5134D2B685B6993B1124ACA
S214002220146802201C4400F093F9204600F062F97E
S2140022300E492A6800230B70D088800709D5012331
S2140022400B7038BD022000F083F9022000F0A6F9DA
S214002250EEE79268002AF4D050690344012BEBD9CC
S214002260EFE700BF78130020641300206C130020F3
S2140022700C490B6800227BB183420AD183687AB18D
S214002280936083681BB15A6941690A445A61002009
S21400229070471A469B68EEE70028EFD0022070478A
S2140022A00B60EEE77813002070B5154EFFF731F996
S2140022B034780546FCB9134B1C60134B1C60134B5B
S2140022C01C8000F0CDF8012000F042F900F086F9FD
S2140022D00F4B0246186020B92846FFF720F9232046
S2140022E070BD23460B4840F2E73100F0A5FB0A4BD1
S2140022F01860012333702846FFF711F90020EFE736
S2140023006013002078130020641300206E13002052
S2140023107413002018FCFFFF6813002038B5FFF781
S214002320F8F8054600F0E0F804462846FFF7F7F808
S214002330204638BD044B1B68584300F2E7304FF484
S2140023407A73B0FBF3F0704774130020C2072DE9D0
S214002350F34704460BD53F4A138801339BB21380DC
S214002360FFF73CFF3C4B1B680BB1FFF753FFA3077F
S2140023706DD5FFF7CEF80546FFF730FF0026DFF8ED
S214002380D8803746B146D8F800400CB163698BB1A7
S214002390324B0022012F1A7002D1022E08BF1F7086
S2140023A0002C44D0FFF736FF284602B0BDE8F047C1
S2140023B0FFF7B5B823461A792179914288BF1C46A3
S2140023C09B6813B15A69002AF5D02846FFF7A7F88C
S2140023D0256985B300F088F8A269861AF317B54216
S2140023E079EB030328DA23691344A36101232269E6
S2140023F082B17BB9A91B0191FFF78BF80199824640
S2140024002046FFF7C9FEA36922691344A36150461C
S214002410FFF785F8E368E688013713B121682046A0
S2140024209847FFF776F80546FFF7D8FEABE7022099
S21400243000F09CF8B8E72E46FFF76BF88246204679
S214002440FFF716FF5046FFF76AF80023CFE702B003
S214002450BDE8F0876E13002078130020701300206C
S21400246010B51D4B86B01868596803AA03C2197ABE
S214002470D3F8090011700190B3F80D201748DB7BE4
S214002480ADF8082001218DF80A300024FEF7E2FBA3
S21400249003A88DF80C408DF81040FFF7D9F901A974
S2140024A001208DF80440FFF7B3F90D4A536A23F470
S2140024B0FF6323F00703536240F2FF7313620120A9
S2140024C09460FFF7BFF9074B4FF08042C3F88021B6
S2140024D01A6006B010BD00BF8AD20000A009140022
S2140024E00020044000E100E0014B9868704700BF00
S2140024F00020044010B50446FFF704F8124A93681B
S214002500516D9269520704D4CA1A032A01D8994217
S2140025100DD1E21A022A98BFDC1C0B4BB4F1FF3F28
S21400252038BF013C5C655A6A42F004025A62FEF704
S214002530EDFF064A137833B103490B6D43F00203EF
S2140025400B650023137010BD002004407A10002095
S2140025508207054A00F00103516A48BF43F00403AE
S2140025600B435362704700BF00200440820700F010
S214002570010309D5074A0121117007490A6D22F0A7
S214002580030243F004030A6503494A6A22EA030386
S2140025904B6270477A10002000200440830742BF39
S2140025A0014B0422DA6170470020044010B5FEF7A4
S2140025B0B0FF094A93690446590703F0010003F087
S2140025C0070348BF40F002001362FFF7BFFE204635
S2140025D0BDE81040FEF7A3BF002004400148FEF708
S2140025E085BC00BFA009140008B500F037F900F05C
S2140025F081F900F081F900F088F9BDE8084000F0A4
S21400260085B908B500F083F900F082F900F081F989
S214002610BDE8084000F07EB910B50446FEF7F2F8B3
S2140026200B4BA0F57A729A4210D84FF47A735C433B
S214002630B0FBF3F0074BB3FBF0F0B4FBF0F003286D
S21400264004D9BDE81040800800F00AB810BD00BFED
S214002650FFC99A3B40420F00000000000000000047
S214002660013800D0FCE7704770B50446FFF756FE09
S21400267010490546204601F089FCFFF74FFE0E493B
S2140026800E4C0A682668531E06FB0303581BB0FB55
S214002690F2F0013220600F200A60FFF74BFE23683D
S2140026A064215943BDE87040B1FBF0F1044800F0E6
S2140026B085BB00BFC52600007C1000207C130020D0
S2140026C09AD2000037B5018AFD2937D029B11C48B7
S2140026D003B0BDE8304000F071BB4389052B20D81D
S2140026E0184A012B52F823201DD0A3F1030CDCF16D
S2140026F0000545EB0C05012B16D0191F4C424C412A
S214002700818900910168104800F058FB0F486DB1B0
S214002710FEF7BDF80E4864B103B0BDE83040FEF7E2
S214002720B6B80C4AE1E71D461C46E9E7FEF7B2F8E4
S214002730F0E703B0BDE83040FEF7ACB803B030BDFC
S214002740CED2000080100020D9D200005C22020009
S21400275074220200C6D2000008B51D4800F0B4FB83
S2140027601C4800F0B1FB1C4800F0AEFB194800F016
S214002770ABFB1A48FEF7BAFB0146194800F01EFBF1
S2140027804FF47A51174800F019FB1749174800F024
S21400279015FB104800F098FB0023154915481A460B
S2140027A001F0AAFB014668B9FFF77EFD01214FF450
S2140027B07A50FDF74DFDBDE808400F4A0F48F0215E
S2140027C0FDF72EBEBDE808400D4800F0F7BA00BF82
S2140027D091D300000FD3000040D300007000020029
S2140027E071D3000093D30000B5D30000C7D3000018
S2140027F02818020044D40000692600008013002038
S214002800DFD30000FEE708B5FFF7EEFEFFF7A4FFF4
S214002810FFF7F7FEFFF7F6FFFAE7704708B5042163
S2140028201120FEF731FD09480121FEF713FA08488A
S2140028300221FEF729FD07480221FEF725FD06487E
S2140028400221FEF721FD002008BD00BF30253E0016
S21400285002001E00030020000500240008B5214BDE
S21400286001225A64204BD3F8FC20204B120E12D1C2
S2140028704AF6E851C3F89011D3F8981141F00401D4
S214002880C3F89811C3F89021D3F8642142F400529B
S214002890C3F8642101E0012AF6D0154A136A23F42E
S2140028A0441343F488131362A2F58042136843F47A
S2140028B08073136002F54052D2F8A43143F4F84313
S2140028C0C2F8A431FFF792F9FDF7BCFCFFF744F914
S2140028D0FFF778F9FFF7A2FFFFF730F9BDE80840E9
S2140028E0FDF7A0BC00000E400081E00F00300E4057
S2140028F000400E4000F042B808B5FDF765FCFFF753
S214002900D3FCBDE8084000F02FB87047704770470A
S214002910704770477047000070B5104E35460FCDB3
S21400292092B00BAC0FC495E8070006F11C0584E8CE
S21400293007000FCD06AC0FC42B68236006F13003EA
S2140029400FCB02AC84E80F00054B00930BAA06AB36
S21400295021460448FFF754FB12B070BD1C2202004B
S21400296040170020A0170020FFF7D6BF014B1868BD
S214002970FFF7FABBA0170020FFF7F8BF08B504481A
S214002980FDF782FFBDE808400248FDF77DBF00BFA7
S2140029905C220200742202007BB972B90029BEBF15
S2140029A000204FF0004106E008BF00281CBF6FF073
S2140029B000414FF0FF3000F0BFB9ADF1080C6DE9F3
S2140029C004CE002909DB002B1ADB00F04DF8DDF8F9
S2140029D004E0DDE9022304B07047404261EB4101A8
S2140029E0002B1BDB00F040F8DDF804E0DDE90223F5
S2140029F004B0404261EB4101524263EB430370472F
S214002A00524263EB430300F02FF8DDF804E0DDE903
S214002A10022304B0404261EB41017047524263EB2F
S214002A20430300F021F8DDF804E0DDE9022304B0FA
S214002A30524263EB4303704753B94AB9002908BFB3
S214002A4000281CBF4FF0FF314FF0FF3000F074B984
S214002A50ADF1080C6DE904CE00F006F8DDF804E0F0
S214002A60DDE9022304B070472DE9F047089D0446CF
S214002A708E46002B4DD18A42944669D9B2FA82F22C
S214002A8052B101FA02F3C2F1200120FA01F10CFA68
S214002A9002FC41EA030E94404FEA1C48210CBEFBA0
S214002AA0F8F61FFA8CF708FB16E341EA034306FB29
S214002AB007F199420AD91CEB030306F1FF3080F0B8
S214002AC01F81994240F21C81023E63445B1AA4B205
S214002AD0B3FBF8F008FB103344EA034400FB07F7A7
S214002AE0A7420AD91CEB040400F1FF3380F00A81E8
S214002AF0A74240F207816444023840EA0640E41BDD
S214002B0000261DB1D4400023C5E900433146BDE888
S214002B10F0878B4209D9002D00F0EF800026C5E92A
S214002B20000130463146BDE8F087B3FA83F6002E42
S214002B304AD18B4202D3824200F2F980841A61EBBA
S214002B40030301209E46002DE0D0C5E9004EDDE7D8
S214002B5002B9FFDEB2FA82F2002A40F09280A1EBC0
S214002B600C014FEA1C471FFA8CFE0126200CB1FB15
S214002B70F7F307FB131140EA01410EFB03F088420E
S214002B8008D91CEB010103F1FF3802D2884200F29B
S214002B90CB804346091AA4B2B1FBF7F007FB10112D
S214002BA044EA01440EFB00FEA64508D91CEB0404CB
S214002BB000F1FF3102D2A64500F2BB800846A4EB26
S214002BC00E0440EA03409CE7C6F12007B34022FA11
S214002BD007FC4CEA030C20FA07F401FA06F31C4340
S214002BE0F9404FEA1C4900FA06F3B1FBF9F8200C4D
S214002BF01FFA8CFE09FB181140EA014108FB0EF093
S214002C00884202FA06F20BD91CEB010108F1FF3AE2
S214002C1080F08880884240F28580A8F102086144EE
S214002C20091AA4B2B1FBF9F009FB101144EA0141FC
S214002C3000FB0EFE8E4508D91CEB010100F1FF34A7
S214002C406CD28E456AD90238614440EA0840A0FB3F
S214002C500294A1EB0E01A142C846A64656D353D015
S214002C605DB1B3EB080261EB0E0101FA07F722FA39
S214002C7006F3F1401F43C5E9007100263146BDE862
S214002C80F087C2F12003D8400CFA02FC21FA03F3C5
S214002C90914001434FEA1C471FFA8CFEB3FBF7F046
S214002CA007FB10360B0C43EA064300FB0EF69E426B
S214002CB004FA02F408D91CEB030300F1FF382FD204
S214002CC09E422DD9023863449B1B89B2B3FBF7F6AC
S214002CD007FB163341EA034106FB0EF38B4208D985
S214002CE01CEB010106F1FF3816D28B4214D9023EC6
S214002CF06144C91A46EA004638E72E46284605E7E4
S214002D000646E3E61846F8E64B45A9D2B9EB0208B4
S214002D1064EB0C0E0138A3E74646EAE7204694E744
S214002D204046D1E7D0467BE7023B614432E7304677
S214002D3009E76444023842E7704700BF08B5074B0E
S214002D40044613B1002100E000BF054B1868836AF3
S214002D5003B198472046FEF7AEFF00BF0000000014
S214002D608C22020070B50D4D0D4C641BA41000267D
S214002D70A64209D10B4D0C4C0AF024FA641BA41091
S214002D800026A64205D170BD55F8043B984701368B
S214002D90EEE755F8043B98470136F2E78811002025
S214002DA088110020881100208C1100200244034660
S214002DB0934200D1704703F8011BF9E70FB40A4BA2
S214002DC013B51C6824B1A36913B9204600F05EFA57
S214002DD005AB049AA1680193204600F067FC02B098
S214002DE0BDE8104004B07047A010002070B50E4635
S214002DF0054618B183690BB900F048FAAB69AC68B0
S214002E0013B9284600F042FA2C4B9C4220D16C683D
S214002E10636EDB0705D4A389980502D4A06D00F085
S214002E20D3FAA38919071DD52369DBB1013EA36830
S214002E3016F8011F013BA36039BB002B38DA224687
S214002E400A21284600F048F8013011D00A2511E082
S214002E501B4B9C4201D1AC68DAE71A4B9C4208BF78
S214002E60EC68D5E72146284600F088F80028DDD033
S214002E704FF0FF35636EDA0705D4A3899B0502D4AD
S214002E80A06D00F0A2FA284670BD002B04DAA269F5
S214002E909A4206DC0A2904D023685A1C226019705C
S214002EA0C5E72246284600F017F80130BFD1DFE715
S214002EB023680A255A1C22601D70DBE7B022020038
S214002EC0D022020090220200024B01461868FFF74B
S214002ED08DBF00BFA0100020F8B50E46144605466C
S214002EE018B183690BB900F0D1F9214B9C422BD164
S214002EF06C68A369A360A3891A072FD523696BB3EF
S214002F0023692068C01A6369F6B28342374604DC38
S214002F102146284600F026F930BBA368013BA36093
S214002F2023685A1C22601E7063690130834204D0F5
S214002F30A389DB0706D50A2E04D12146284600F0D1
S214002F4011F988B93846F8BD0A4B9C4201D1AC68E5
S214002F50CFE7094B9C4208BFEC68CAE721462846E3
S214002F6000F00CF80028CBD04FF0FF37EAE700BFA0
S214002F70B0220200D022020090220200324B70B52E
S214002F801D6806460C4625B1AB6913B9284600F005
S214002F907DF92E4B9C420FD16C68A389B4F90C20A6
S214002FA019072CD4DD0611D40923336042F0400300
S214002FB0A3814FF0FF303EE0254B9C4201D1AC6828
S214002FC0EBE7244B9C4208BFEC68E6E7580712D5AF
S214002FD0616B41B104F14403994202D0304600F0DF
S214002FE05BFA00236363A38923F02403A3810023F1
S214002FF0636023692360A38943F00803A3812369E0
S2140030004BB9A38903F42073B3F5007F03D02146A0
S214003010304600F001FAA089B4F90C2010F0010344
S2140030200AD00023A36063695B42A361236943B9A6
S21400303010F08000BAD170BD810758BF6369A360E5
S214003040F4E70020F7E700BFA0100020B02202003F
S214003050D0220200902202008A892DE9F04105461E
S21400306010070C4658D44B68002B05DC0B6C002B65
S21400307002DC0020BDE8F081E66A002EF9D00023CD
S21400308012F480522F682B6032D0606DA3895A07E5
S21400309005D56368C01A636B0BB1236CC01A002396
S2140030A00246E66A216A2846B047431CA38906D131
S2140030B029681D292CD82A4ACA40D60728D50022B6
S2140030C06260D9042269226004D5421C01D12B68B3
S2140030D003B96065616B2F600029CAD004F1440310
S2140030E0994202D0284600F0D7F900206063C1E775
S2140030F0216A01232846B047411CC7D12B68002B04
S214003100C4D01D2B01D0162B01D12F60B1E7A389A7
S21400311043F04003A381ADE70F69002FA9D09307C2
S2140031200E6808BF4B690F6018BF0023A6EB0708A0
S2140031308B60B8F1000F9CDD216AA66A43463A46CA
S2140031402846B047002806DCA38943F04003A38145
S2140031504FF0FF308EE70744A8EB0008E9E700BF12
S2140031600100402038B50B6905460C4613B900250A
S214003170284638BD18B183690BB900F087F8144BA0
S2140031809C421BD16C68B4F90C30002BEFD0626EF9
S214003190D00704D4990502D4A06D00F015F928468E
S2140031A02146FFF759FF636EDA070546E0D4A38988
S2140031B09B05DDD4A06D00F008F9D9E7054B9C42CD
S2140031C001D1AC68DFE7044B9C4208BFEC68DAE745
S2140031D0B0220200D022020090220200002310B586
S2140031E00446C0E90033C0E9043383608181436646
S2140031F0C2818361194608225C30FFF7D7FD054B74
S2140032006362054BA362054BE362054B24622363AE
S21400321010BD00BF553C00007B3C0000B33C0000E6
S214003220D73C0000014900F0AFB800BF6531000090
S21400323070B568224D1E55430E4605F1740100F028
S21400324097F9044640B10021C0E900160C30A06092
S21400325005F16802FFF7AAFD204670BD014800F0A0
S214003260B3B800BFB9170020014800F0AEB800BFE1
S214003270B9170020014800F0A7B800BFBA17002011
S214003280014800F0A2B800BFBA17002010B50446E7
S214003290FFF7F0FFA3691BB1BDE81040FFF7F0BFD2
S2140032A0C4E912332365134B134A1B68A262A34278
S2140032B004BF0123A361204600F020F8606020468A
S2140032C000F01CF8A060204600F018F80022E0602D
S2140032D004216068FFF782FFA06801220921FFF73A
S2140032E07DFFE06802221221FFF778FF0123A36129
S2140032F0D2E700BF8C22020025320000F8B5074650
S214003300FFF7ACFF1E4B1E68B36913B93046FFF7D4
S214003310BDFF4836D6E90134013B03D533680BB30D
S2140033203668F7E7B4F90C50D5B9164BE36004F1EC
S2140033305800656600F047F8FFF796FFC4E90155A8
S214003340C4E904552560A5610822294604F15C00FD
S214003350FFF72CFDC4E90D55C4E912552046F8BD0B
S2140033606834D9E704213846FFF762FF0446306028
S2140033700028D5D1FFF778FF0C233B60EEE700BFAF
S2140033808C2202000100FFFF2DE9F843064688461E
S21400339000F148040027D4E90195B9F1010905D5E3
S2140033A02468002CF7D13846BDE8F883AB89012B9A
S2140033B007D9B5F90E30013303D029463046C04749
S2140033C007436835E9E770477047704770B50E46A3
S2140033D0B1F90E10002996B014461D4608DAB6F963
S2140033E00C3000222A601A0610D44FF480630EE0D8
S2140033F06A4600F097FC0028F1DB019A02F470425E
S214003400A2F500535A425A412A60EEE740230020B4
S214003410236016B070BD00008B8973B59D07064605
S2140034200C4607D504F1470323602361012363613B
S21400343002B070BD01AB6A46FFF7C8FF00990546AB
S214003440304600F095F848B9B4F90C309A05EFD438
S21400345023F0030343F00203A381E3E70D4BB362BB
S214003460A389206043F08003A381009B6361019BD6
S21400347020615BB1B4F90E10304600F065FC28B14F
S214003480A38923F0030343F00103A381A089054326
S214003490A581CDE72532000037B5002944D051F884
S2140034A0043C0190002BA1F10404B8BFE41800F01E
S2140034B0CDFC1E4A0198136833B96360146003B0EC
S2140034C0BDE8304000F0C8BCA34208D925686119A1
S2140034D08B4201BF19685B6849192160EDE71A46FF
S2140034E05B680BB1A342FAD911685518A5420BD1F7
S2140034F0246821445418A3421160E0D11C685B681C
S214003500536021441160DAE702D90C230360D6E742
S214003510256861198B4204BF19685B68636004BF45
S214003520491921605460CAE703B030BDBC170020BB
S21400353070B50E4E0C463168054611B900F07AFBA0
S21400354030602146284600F075FB431C0AD0C41C98
S21400355024F00304A04207D0211A284600F06AFB94
S214003560013001D14FF0FF34204670BDC017002057
S2140035702DE9F041CD1C25F0030508350C2D38BF8C
S2140035800C25002D074601DBA94205D90C233B601C
S21400359000263046BDE8F0812E4E00F057FC33681A
S2140035A01C4634BB29463846FFF7C2FF431C044678
S2140035B04DD134682646002E40D123683146384621
S2140035C004EB030800F036FB80453AD1216803354A
S2140035D06D1A25F0030508350C2D38BF0C25294635
S2140035E03846FFF7A5FF01302BD023682B44236015
S2140035F00EE02268521B1ED40B2A16D96119A3426C
S214003600256018BF5960636808BF316062514B601F
S214003610384604F10B0600F01FFC26F00706231DB3
S214003620F21AB6D09B1BA350B3E76268A3420CBF46
S21400363032605A60ECE723466468B2E73446766840
S214003640B9E70C233B60384600F006FCA1E725608E
S214003650DEE700BFBC1700209368013B002B10B4C8
S214003660936008DA9469A34201DB0A2903D15DF866
S214003670044BFFF731BC1368581C106019700846DD
S2140036805DF8044B7047F8B506460F461446D51845
S214003690AC4201D1002007E014F8011B3A46304640
S2140036A0FFF7DAFF431CF3D1F8BD00002DE9F04F19
S2140036B00D469DB014469846064618B183690BB968
S2140036C0FFF7E4FD894B9D421BD175686B6ED907E9
S2140036D005D4AB899A0502D4A86DFFF775FEAB89B1
S2140036E01B0701D52B69EBB929463046FFF746FC88
S2140036F0C0B16B6EDC070ED54FF0FF301DB0BDE8D5
S214003700F08F7B4B9D4201D1B568DFE7794B9D4238
S21400371008BFF568DAE7AB899805EDD4A86DFFF722
S21400372054FEE9E70023099320238DF82930CDF8CD
S2140037300C803023DFF8C0818DF82A304FF0010965
S21400374023469A4613F8012B0AB1252AF9D1BAEB7B
S214003750040B0BD05B46224629463046FFF793FF04
S214003760013000F0AA80099A5A4409929AF800306B
S214003770002B00F0A28000234FF0FF32CDE9052396
S2140037800AF1010A049307938DF853301A935446AE
S214003790052214F8011B584800F0FAFA049AD8B922
S2140037A0D10644BF20238DF85330130744BF2B2384
S2140037B08DF853309AF800302A2B15D0079A5446C5
S2140037C000204FF00A0C214611F8013B303B092B34
S2140037D04ED9B0B1079214E0A0EB080309FA03F340
S2140037E013430493A246D2E7039B191D1B6803915B
S2140037F0002BBBBF5B4242F0020207930793B8BFA1
S214003800049223782E2B0CD163782A2B35D1039B78
S2140038101A1D1B680392002BB8BF4FF0FF3302340B
S2140038200593DFF8E4A021780322504600F0B0FAB2
S21400383040B14023A0EB0A0003FA00F0049B0343C8
S2140038400134049314F8011B2C488DF82810062226
S21400385000F09EFA00283FD0294B1BBB039B073382
S21400386023F0070308330393099B3B44099367E758
S2140038700CFB02320C460120A5E700230134059319
S21400388019464FF00A0C204610F8012B303A092A48
S21400389003D9002BC5D00591C3E70CFB01210446D4
S2140038A00123F0E703AB00932A46164B04A93046E3
S2140038B000E000BF0746781CD6D16B6ED90705D44A
S2140038C0AB899A0502D4A86DFFF77FFDAB895B062E
S2140038D03FF512AF099811E703AB00932A46094B50
S2140038E004A9304600F080F8E4E700BFB0220200EA
S2140038F0D022020090220200F0220200FA220200E9
S2140039000000000087360000F62202002DE9F0478E
S214003910164699468A680B69DDF820809342B8BF40
S2140039201346336091F8432007460C460AB101332C
S21400393033602368990642BF3368023333602568D4
S21400394015F0060506D104F1190AE36832689B1AD9
S214003950AB4226DC94F84320131E226818BF0123CE
S21400396092062BD404F1430249463846C04701303C
S2140039701ED02368E568326803F00603042B08BFF0
S214003980AD1AA36822690CBF25EAE57500259342A7
S214003990C4BF9B1AED1800261A34B5421AD100206F
S2140039A008E00123524649463846C047013003D155
S2140039B04FF0FF30BDE8F0870135C6E7E1185A1C26
S2140039C0302081F84300224494F8451082F84310D2
S2140039D00233C7E70123224649463846C04701302E
S2140039E0E6D00136D9E700002DE9FF470F7E0C9D93
S2140039F0782F914680460C469A4601F1430207D836
S214003A00622F0AD8002F00F0D880582F00F0A3802D
S214003A1004F1420584F842703AE0A7F16303152BDF
S214003A20F6D801A151F823F0813A0000953A00003B
S214003A30113A0000113A0000113A0000113A000055
S214003A40953A0000113A0000113A0000113A0000C1
S214003A50113A0000A13B0000C53A0000833B00007D
S214003A60113A0000113A0000C33B0000113A000072
S214003A70C53A0000113A0000113A00008B3B0000E6
S214003A802B681A1D1B682A6004F1420584F8423030
S214003A900123A3E020682968060601F104030AD57D
S214003AA00E682B60002E03DA2D23764284F843300E
S214003AB05E480A2319E00E682B6010F0400F18BF0E
S214003AC036B2EFE72B682068191D2960010601D57C
S214003AD01E6802E04606FBD51E8854486F2F0CBFB2
S214003AE008230A23002184F843106568A560002D8A
S214003AF0A2BF216821F0040121600EB9002D4DD02F
S214003B001546B6FBF3F103FB1167C75D05F8017DAB
S214003B103746BB420E46F4D9082B0BD12368DE0786
S214003B2008D5236961689942DEBF302305F8013C59
S214003B3005F1FF35521B2261CDF800A04B4603AAC3
S214003B4021464046FFF7E2FE01304CD14FF0FF30F1
S214003B5004B0BDE8F087354881F8457029682368C9
S214003B6051F8046B29601D0614D5DF0744BF43F0E7
S214003B70200323601EB9236823F02003236010234C
S214003B80B0E7236843F0200323607823284884F8AE
S214003B904530E3E7590648BFB6B2E6E71546BBE749
S214003BA02B6826686169181D286035061B6801D5D4
S214003BB0196002E07006FBD51980002323611546C4
S214003BC0BAE72B681A1D2A601D686268002128461D
S214003BD000F0DEF808B1401B6060636823610023D4
S214003BE084F84330A8E723692A4649464046D0472A
S214003BF00130ABD023689B0713D4E068039B984240
S214003C00B8BF1846A4E70123324649464046D04787
S214003C1001309BD00135E36803995B1AAB42F2DCB6
S214003C20EBE7002504F11906F5E700BF01230200C3
S214003C301223020038B5064D0023044608462B60C2
S214003C40FCF770FD431C02D12B6803B1236038BD1E
S214003C50C417002010B50C46B1F90E1000F032F96A
S214003C600028ABBF636DA3891B1823F48053ACBF39
S214003C706365A38110BD002070472DE9F0411F4603
S214003C808B89DB0505460C46164605D5B1F90E10A0
S214003C900223002200F068F8A389B4F90E1023F47A
S214003CA08053A38132463B462846BDE8F04100F0EB
S214003CB017B810B50C46B1F90E1000F055F8431CB5
S214003CC0A38915BF606523F4805343F48053A38112
S214003CD018BFA38110BDB1F90E1000F013B8000094
S214003CE038B5074D04460846114600222A601A4693
S214003CF0FDF7F9FF431C02D12B6803B1236038BDE2
S214003D00C417002038B5064D0023044608462B602D
S214003D10FDF7CFFF431C02D12B6803B1236038BDEB
S214003D20C417002038B5074D002304460846114640
S214003D302B60FDF7C1FF431C02D12B6803B1236043
S214003D4038BD00BFC417002038B5064D0023044612
S214003D5008462B60FDF7B5FF431C02D12B6803B164
S214003D60236038BDC417002038B5074D0446084602
S214003D70114600222A601A46FDF7A5FF431C02D111
S214003D802B6803B1236038BDC41700200000000074
S214003D9001F0FF01102A2BDB10F0070F08D010F8F7
S214003DA0013B013A8B422DD010F0070F42B3F6D1FB
S214003DB0F0B441EA012141EA014122F007047FF014
S214003DC000070023F0E80256083C85EA010586EA6B
S214003DD0010685FA47F5A3FA87F586FA47F6A5FAA7
S214003DE087F68EB9EED1F0BC01F0FF0102F00702B3
S214003DF032B110F8013B013A83EA010313B1F8D15E
S214003E000020704701387047002D06BF354603383E
S214003E10073815F0010F07D1013015F4807F02BF77
S214003E20013015F4C03F0130F0BC0138704700BFC8
S214003E300A44914200F1FF3300D1704710B511F8E3
S214003E40014B03F8014F9142F9D110BD0148FFF72D
S214003E50BBBA00BFB81700200148FFF7B6BA00BFCC
S214003E60B81700202DE9F041804614460E4621B9C9
S214003E70BDE8F0411146FFF77BBB2AB9FFF70CFB04
S214003E8025462846BDE8F08100F02EF88442074615
S214003E9002D8B4EB500F12D821464046FFF768FB15
S214003EA005460028EDD0BC422246314628BF3A4699
S214003EB0FFF7BEFF31464046FFF7EEFAE1E735462C
S214003EC0DFE7000038B5074D0446084611460022D5
S214003ED02A601A46FDF7F9FE431C02D12B6803B18F
S214003EE0236038BDC417002051F8043C181F002B6F
S214003EF0BCBF0B58C01870472DE9F3410F46002190
S214003F001D46804616461E4CC42220460091FEF7EB
S214003F104DFF1C4B01A8A366A4F87850C4E915878A
S214003F20A4F86E6000F004FC6946204600F008FC29
S214003F30019D2B0D062B1FD1C5F30733082B1BD174
S214003F40C5F30B05C5B9009808F072FCC4F8A800C4
S214003F50A0B142F2607323610B4B2046E3602562FA
S214003F60A56165612560E56100F05CF8204600F01B
S214003F7085FD02B0BDE8F0810120FAE7FE20F8E7F3
S214003F80C81700200600FA008C1800202DE9F04122
S214003F90214F224CD7E90032013342F10002884615
S214003FA02146C7E9003201F04FF8B4F89A300646C9
S214003FB013B10023A4F89A30194D36BBB4F8842008
S214003FC00AB3D4F8C030002B0DDDB4F9BC1051B9DB
S214003FD032232B82114801F01DF811482E82C0476B
S214003FE03046BDE8F0816A81B4F88A20D7E900013E
S214003FF0AA81C5E90001B4F8BE20B4F89210EA819F
S21400400029816B61E6E73126E4E7FD2EE5D003481B
S21400401000F034FDE1E700BF50670020C81700201D
S21400402058670020202210B5002104462830FEF7ED
S214004030BDFE0023C4E927336360A384204601F055
S214004040B6F90B4BEF3083FB00231A18C017A36991
S214004050C0EBE210C0EB0010226903EB00109042A8
S21400406020624FF01103A4BF801A2062E38710BDC0
S2140040708988888810B5044601F099F90A4A00F143
S214004080EF0382FB0312D018DB17A2692169C3EB8A
S214004090E013C3EB031302EB03138B422362A4BFAC
S2140040A05B1A236210BD00BF89888888026A43694C
S2140040B09B1A44BF02699B18EF2BD4BF0020012037
S2140040C0704700BF2DE9F04FB0F97660D0F8208039
S2140040D0C568B0F93840002E05EB48054FF00002E1
S2140040E0014608BF4FF4966605F5F07E134635F98F
S2140040F0027B2046381A002887EAE77CB8BF404291
S214004100ACEBE77C75453C4613FA8CF30244EED1E3
S214004110D1F810B0B1F92E50DFF814930F8708F1DC
S214004120F0005845086204BF00200862C88ED2100E
S21400413005F1010E10FB052000EB6E0090FBFEF073
S214004140484547F6FF74B8BF4846A042A8BF204679
S214004150B1F928404FEA6E0700B2022CB846C8866E
S214004160B1F934704FEA231A00F0B280002F7AD1EA
S214004170488EC44615FB00A084449CFBFEFCCC4540
S214004180B8BFCC4647F6FF708445A8BF84460FFAF2
S2140041908CFCA1F832C0B846B1F9300000EB8009BB
S2140041A000EB490949F3CF09002800F08A80E14571
S2140041B0ACBF4FF0000C4FF0010C1B1205D0B34201
S2140041C0C8BF48F001084CEA0803062DB1F93A507A
S2140041D0D4BF0FFA8EFE4FF0100EA1F82EE0002D81
S2140041E071D02F4600254D87B1F92C50DFF840C21C
S2140041F06E1C07FB052700FB05A207EB660090FB7D
S214004200F6F0604547F6FF7702EB6602B8BF6046F9
S21400421092FBF6F26245B8BF6246B842A8BF38467F
S214004220BA42A8BF3A460A864A688886052DD4BF91
S21400423036B2C82601328E854A60A3B3012C00F040
S214004240C780032C00F0C180002C00F0B380A31EB2
S2140042509BB2012B2DD8D1F8A03001200344C1F821
S214004260A030BDE8F08FB1F832C015FB0CACE044CE
S21400427098FBFEFCCC4547F6FF78B8BFCC46C44555
S214004280A8BFC44607EB870807EB480848F3CF08E3
S21400429040450FFA8CFCA1F832C0D4BF4FF000089E
S2140042A04FF0010878E7022C69D0032C59D0012C76
S2140042B04FD0D1F89C3001330020C1F89C30BDE8C7
S2140042C0F08F844679E7B7EB820FC8BF4A878BE743
S2140042D0EFB9488E10FB05A0404490FBFEF0484521
S2140042E047F6FF7CB8BF48466045A8BF60460FFA51
S2140042F080FCA1F832C0B846B1F9300000EB800966
S21400430000EB4909C9EBC90949F38F194CE7B1F825
S21400431032C015FB0CACE04498FBFEFCCC4547F6DF
S214004320FF78B8BFCC46C445A8BFC44607EB87088D
S21400433007EB4808C8EBC80848F38F1840450FFA43
S2140043408CFCA1F832C0D4BF4FF000084FF0010833
S214004350D2E70B85D1F89C3001330020C1F89C30A1
S214004360ADE7D1F8B030002B7FF475AF00230B8596
S214004370D1F89C3001330020C1F89C309FE78A6951
S2140043800B6A9B1A48BF5B4442F6DF6293424CDDE1
S214004390284880FB0340DA170344C2EBE3139BB2C2
S2140043A0A1F8B230D1F8B03003220A85002B7FF492
S2140043B052AFDBE701230B85D1F89C300522013391
S2140043C04A850020C1F89C3079E702230B8542E736
S2140043D0B1F92A30002B3FF46CAF013B1BB24B8582
S2140043E0002B7FF466AF0B6A4C69C869E41A48BFB5
S2140043F05C44001B0F4C84FB00540444C017C0EB05
S214004400E410B1F93E40A042A8BF2046A0EB00143D
S21400441013EB041348BF5B448B61D1F8A830022429
S214004420121A0C85C3F87C2E15E73223B8E700BFB6
S2140044300180FFFF898888882DE9F043B2F846801E
S2140044404E6D85B014460546B8F1000F00F00B819E
S2140044505369DA8A0F46002A52D0B4F84420012A5B
S21400446056D0002A57D06268B2F84420022A1CBFF1
S2140044700122A7F844201A6C276901321A64B5F89D
S214004480B230002B4ED1396B78694FF4F072FFF7DB
S214004490CFFC3B6BF0220021284600F094FF7869A1
S2140044A0396B4FF4907200F5F070FFF7C1FC2046B0
S2140044B002F062FB204603F071FA002800F08180CB
S2140044C094F83030DF0731D523691968B1F84E20EB
S2140044D0012A00F0C180E26892F84D108D063DD5A5
S2140044E05968C8073AD5B4F84420013292B2012A76
S2140044F0A4F8442000F00181FD2005B0BDE8F0835B
S214004500226951689160D160B4F84420012AA8D18C
S2140045100023A4F84430284600F03EFF0028EBD0E5
S2140045206369A0E7013BA5F8B230ACE7204603F08C
S214004530A1FB002845D094F832000028DDD17B4B43
S2140045405A6812B119688A42D7D3DA68002AD4D0DA
S21400455099688A42D1D901319960CEE7A3685B8811
S214004560002B3CD1516800930222204604F0C0F88C
S21400457063680222A3F84420204605F04DFBE2685B
S2140045806168D58B0346B1F86000A84238BFA1F831
S2140045906050002B7CD192F84D301B0700F19080C4
S2140045A0B4F8443001339BB2012BA4F84430A3D1B5
S2140045B02369D9685A6801310132FD20D9605A60F2
S2140045C09BE723695A68D968013201310125FD202D
S2140045D0D9605A60A4F8445005B0BDE8F0830125C0
S2140045E000275368CDE900751A46A169204600F0F9
S2140045F02FFF06F58056A368B6F956265B889B1AE9
S214004600AB42B5DDA846CDE900570023A16903AA51
S214004610204600F01DFFBDF90C0007F0E7FB8146C1
S214004620BDF90E0007F0E2FBD4E902128310C3EBDB
S214004630A900B2F856305268434403F100430233EF
S214004640013522F813004B88B6F95626ADB29B1AF0
S2140046509D42A846D7DB8BE75A68B1F858108A42C5
S214004660BFF439AFAFE700F097FE00283FF444AF41
S2140046702369F0221B6B4146284600F0A4FE6269BF
S214004680136C4FF4803101336164FD20136434E70A
S214004690B1F8463001331046A1F8463007F0D6FB95
S2140046A0206A07F0F5FEB4F8443001339BB20022CE
S2140046B0012B84F83220A4F844307FF41DAF77E74E
S2140046C0B2F84810204606F0E9F800283FF468AF34
S2140046D061686369CA8BB3F840001861204692B1DE
S2140046E003F050F9E06807F0B1FB206A07F0D0FE4F
S2140046F02369DB680133236452E7DA68013101324B
S214004700DA605960F8E603F0C7F8B4F844300133CD
S2140047109BB2012BA4F844307FF40DAF2369D9680F
S2140047205A6801310132D9605A6004E77067002088
S21400473020B14FF4C103036000207047FC2070478F
S214004740002800F061812DE9F0430D4685B0002970
S21400475000F05C81D0E915E69EF80030532B044645
S214004760774600F09E80C4F85CE03B88102B63D050
S2140047700E2B61D0142B40F0438104F1540001F05D
S214004780CDFABA8845F6082322F0F701994200F0E0
S2140047903081B4F8B600B4F9BA30B0F5007F0146FF
S2140047A038BF4FF40071012B40F332814300B3F55C
S2140047B0007FB8BF4FF400739BB222F07F02034421
S2140047C05B00B2F5B54F03F5B3531FFA82F800F05D
S2140047D02381B4F9B820A4480B3280FB02C0D2175C
S2140047E0C2EB600202EB4202B1EB820F4FEA82009C
S2140047F0C0F210814900788889B203EB4101A8B164
S21400480000239C4607F1100E3EF83320022A08BF0C
S2140048100CF1010C03F1010308BF1FFA8CFC98424F
S214004820F2DCB8F5B54F604600F0FE803B88102BF2
S21400483005D00E2B19D102E000204FF4B351FA88B0
S2140048408A4B0B32A3FB0232D20802EB42029200E2
S21400485092B2B2F5007F134638BF4FF400735B0088
S2140048609FB23A4403EB420319447389B788F28E29
S21400487003331844B4F86830013A3B44134403EB5E
S2140048808302B4F86A30DB00033303EB42030B44C5
S21400489003EB4003C4F8AC3000202B6005B0BDE845
S2140048A0F0839EF80130722B7FF45DAFDEF8048053
S2140048B0BEF80230ADF80A3043F23003ADF80830E7
S2140048C000211FFA88F3CDF800808DF80C10002B1D
S2140048D000F094800EF10409F4469CF800200823AA
S2140048E081EA020010F0800F03F1FF3388EA4100EE
S2140048F04FEA420208BF49009BB214BF81B289B298
S21400490092B2002BECD10CF1010CE145E5D1B1EBF4
S214004910184F4FEA184C34D09C46C8F307238DF83E
S21400492001808DF80030BDF80090BDF90000C8F396
S2140049300763C8F307488DF803808DF802300EF140
S2140049407C089EF8002008238CEA020111F0800FF4
S21400495003F1FF3380EA4C014FEA420208BF4FEAF8
S2140049604C0C9BB214BF1FFA81FC1FFA8CFC92B24F
S214004970002BE9D10EF1010EF045E2D1B9F1000F9E
S2140049803CD0BDF80230634538D1394901AA02A8A7
S21400499007F056FF0128034630D1019AA2F18001A4
S2140049A07F2946D8500602F07F0145D43148C1F32E
S2140049B0C20102F0070210F8213030F8221003F08E
S2140049C01F02520002F00303053392089340C1F31E
S2140049D04112053BC1F3C21105328A4003EB431175
S2140049E0053A03EB410324494B60CA600837E76584
S2140049F0BBE6616DE36D99427FF4CBAEFF204DE7D9
S214004A00522005B0BDE8F083FC207047FC2045E747
S214004A100B46D2E681B2EDE64900788889B203EB10
S214004A20410100287FF4ECAEB4F9B83001EB430145
S214004A30FCE6002ADAD0E1E790060CD449001A46D4
S214004A4001F002030533C1F383018B40053B43218C
S214004A5001FB03F3C7E702F003020532C1F382014C
S214004A608A40053ABFE700BFABAAAA2AABAAAAAA01
S214004A70242302002C23020070670020002800F088
S214004A807C812DE9F047C04BD0F8A8601A78432AFD
S214004A90AAB0054608D0532A02D1597872290DD0FB
S214004AA0FF202AB0BDE8F08759786F29F8D1D96F72
S214004AB0D3F87630009102937C2009E05968009183
S214004AC05B88ADF80A3043F23001ADF808100420D8
S214004AD0BDF8007000218DF80C10002FE0D0DFF834
S214004AE0A8E20EF1FF3813468044F4469BB2082431
S214004AF081EA030010F0800F04F1FF3487EA4100DA
S214004B004FEA430308BF4900A4B214BF81B289B27A
S214004B109BB2002CECD1C44502D01CF8013FE5E75F
S214004B20BDF802308B422FD0BDF800C0974F9CFADC
S214004B309CFC5BBAADF800C01FFA8CF8ADF80230EA
S214004B400FFA8CFC214692B2082381EA020010F08C
S214004B50800F03F1FF338CEA41004FEA420208BFA0
S214004B6049009BB214BF81B289B292B2002BECD13D
S214004B70774502D01EF8012FE5E7B8F1000F8FD079
S214004B80BDF802308B428BD1814901AA02A807F0FA
S214004B9057FE0128034683D1019AA2F180017F299E
S214004BA000F2ED80500602F07F0100F1F9807948AE
S214004BB0C1F3C20102F0070210F8213030F82210CB
S214004BC003F01F02520002F00303053392089340DD
S214004BD0C1F34112053BC1F3C21105328A4003EB13
S214004BE04311053A03EB41036B494B60CA60B5F8C5
S214004BF07A10D5F8A870002900F0FC80D7F81C3F82
S214004C001B68B3F84E30012B00F0DB8006F54868D1
S214004C104146502202A8FFF70BF9D5F8AC20002138
S214004C203046FEF7C3F802A950224046FFF700F9C7
S214004C30502202A906F54360FFF7FAF8696D0B7873
S214004C40532B884600F0FC80E965B8F80030142B3A
S214004C5040F0D680B5F8B630B5F9BA2006F58056DD
S214004C60B3F5007F184638BF4FF40070012AA6F847
S214004C704E36A6F84C0607DD5B00B3F5007FB8BFDE
S214004C804FF40073A6F84C36B8F8042022F07F03E1
S214004C90B3F5B54F1FFA83FC12D0B5F9B830DFF87C
S214004CA0FCE00B338EFB039EDB17C3EB6E0303EBBC
S214004CB043034FEA830EB0EB830FB8BF1FFA8EF0A4
S214004CC04000A6F85006B8F802000023A6F85236B0
S214004CD0002800F07081434608EBC009B3F810E0E6
S214004CE0BEF1020F03F1080305D1B6F852E60EF145
S214004CF0010EA6F852E69945F0D122F0F70245F6E5
S214004D0008239A4203D16B6D8B423FF4C9AE002351
S214004D10A6F8563608F11008002338F83320032A80
S214004D2003F1010304D1B6F856260132A6F856263A
S214004D308342F2DBBCF5B54F01D1B5F8B840A6F812
S214004D40544605F1540003F0ADF880B9D7F81C3F7F
S214004D501A68B2F84E20012A00F026813AB91A6A7B
S214004D60B2F900200AB1B5F97A20A3F8482000234A
S214004D70A5F89830A5F8403093E6FC207047002A46
S214004D803FF435AF8CE600BF041100207F110020F1
S214004D90242302002C23020070670020ABAAAA2A54
S214004DA0970600F1F98049001A4601F00203053320
S214004DB0C1F383018B40053B03EB431103EB410337
S214004DC012E706F557684146A02202A8FFF730F81A
S214004DD0D5F8AC2000213046FDF7E8FF02A9404692
S214004DE0A022FFF725F8A02202A906F54D60FFF7DE
S214004DF01FF823E7D5F8AC203046FDF7D7FF1DE7B0
S214004E00102B40F0C580B8F806307E4A0B33A2FB64
S214004E100323DB0803EB43039B0006F580569BB297
S214004E20B3F5007F1A46A6F84E3638BF4FF4007228
S214004E300023A6F84C26A6F85236A6F8563680E783
S214004E404B78722B7FF400AF4B68009343F230022E
S214004E50ADF808204A88ADF80A201FFA83FC002225
S214004E608DF80C20BCF1000F51D001F104098E46DC
S214004E709EF800C0082082EA0C0A1AF0800F00F1A3
S214004E80FF3083EA420A4FEA4C0C08BF520080B259
S214004E9014BF1FFA8AF292B21FFA8CFC0028EAD1DD
S214004EA00EF1010ECE45E3D1B2EB134F4FEA134C91
S214004EB02DD0C3F307228DF801308DF80020BDF900
S214004EC000E0C3F30762C3F3074384468DF802206D
S214004ED08DF8033001F17C090B7808228CEA030078
S214004EE010F0800F02F1FF328EEA4C004FEA4303C7
S214004EF008BF4FEA4C0C92B214BF1FFA80FC1FFA90
S214004F008CFC9BB2002AE9D101318945E4D1BDF879
S214004F100030002B3FF4C4ADBDF8023063457FF48B
S214004F20BFAD394901AA02A807F08AFC012803464A
S214004F307FF4B6AD019AA2F180017F2957D85006BA
S214004F4002F07F0144D43148C1F3C20102F00702E7
S214004F5010F8213030F8221003F01F02520002F041
S214004F600303053392089340C1F341120532C1F39F
S214004F70C2118A40053B4321053A01FB03F324494D
S214004F804B60CA6008F10808C5F85C8041465CE6DC
S214004F900E2B3FF438AFD4E602F003020532C1F31D
S214004FA082018A40053A1FE65A6A1268002A7FF490
S214004FB0DAAE0246D9E622F0F70245F608239A4210
S214004FC003D16B6D99423FF46BADA6F85606B1E679
S214004FD090060FD449001A4601F002030533C1F3C8
S214004FE083018B40053B432101FB03F3C7E7002AFF
S214004FF0C8D055E502F003020532C1F382018A40AB
S214005000053ABCE7ABAAAAAA242302002C23020076
S2140050107067002070B5D0F8A860D6F8203F00254D
S2140050200446D6F8180F1D6406F010FFD6F82C0FAD
S21400503007F02EFAA4F88650A4F88850A4F89850E2
S214005040A4F84050284670BD2DE9F041D1F8A8607C
S21400505082B00C4601F1540706F60C780546002887
S21400506047D0454B5A686AB319688A4230D3D86825
S21400507010B19A6882422BD201311960F02229467B
S214005080204600F0C4F9D6F8183FB3F86030A4F80C
S214005090B030B4F86030022B30D00123A384B4F9CA
S2140050A08230424639462046F3B1FFF7C5F9B4F9D7
S2140050B0402022B1FD280FD00023A4F8403002B0D3
S2140050C0BDE8F081DA68002AD8D09B689342D5D331
S2140050D0FF2002B0BDE8F081002DEDD0013AA4F823
S2140050E0402039464246204602B0BDE8F041FFF770
S2140050F0A3B90B69002BC6D1FD20E0E72369002B7E
S214005100CBDD2046A68CFEF7D1FF30B9A38C002B52
S214005110C5D1A4F89830FD20D1E72046FEF7D2FF8F
S21400512083B236B2A38453B1002EB8D1B4F882301D
S214005130A4F8403000F045F90028E7D0DCE7002E60
S214005140DAD0D4F8A8500193D5F8202FD5F8180F48
S214005150136406F07BFED5F82C0F07F099F9019B37
S214005160A4F88630A4F88830A4F89830A4F8403024
S21400517000F025F9C0E700BF70670020704700BF49
S214005180F0B586464069DEF81840DEF81030DEF8E6
S214005190A850001B48BFC01800F5F0709842D4BF56
S2140051A0A3EB000CA3EB030C294BD5F8187F83FB6D
S2140051B00C0303EB0C004FEAEC73C3EBE013D5F8DB
S2140051C0200FB7F848C0C68A97F84D00D5F81C5F80
S2140051D0C0F3401000FB0CCCDEF80000834228BF72
S2140051E003461EB1AF68E868381A84442D68B5F8DF
S2140051F04E70012F0CF1050020D09842A8BF18462B
S214005200A9B1A2B1A0EB001304EB0314002C0C60B0
S21400521003DADEF810301C440C60DEF814301C1B79
S214005220002C146003DADEF810301C44146026B13B
S214005230BEF98230C3F104031844F0BDB5F85470CB
S214005240002FDAD1B5F85850043D2844D5E700BF02
S2140052508988888870B4436984690269D0F8A85040
S2140052601B1B48BF9B1803F5F0739342D8BFD21A96
S214005270334BD5F8186FC8BF921A844683FB0203D7
S2140052809818D317C3EBE01396F84D00B6F84820ED
S214005290C0F3401000FB0222D5F8200FC68ADCF8C7
S2140052A00000834228BF0346BCF892001044CEB1EB
S2140052B0D5F81C5FAA68EE68921B02442868B0F80E
S2140052C04E50012D02F1050230D0BCF98200934207
S2140052D0C0F10400104411DA11B14FF0FF330B6037
S2140052E070BC7047D5F81C2F1268B2F84E50012DCE
S2140052F000F1050011D002469342EDDB0029EFD005
S214005300A2EB021204EB0212002A0A60E8DADCF8CA
S21400531010301A4470BC0A607047B2F85450002D22
S214005320E9D1B2F85820043A1044E4E7B0F85450F3
S214005330002DCAD1B0F8580004380244C5E700BFB3
S21400534089888888F0B5C46914BBB1F90040640345
S2140053505D1EADB2D3B101350E4F01EB450547F6E4
S214005360FF7631F902EBC4F1000C04EB6C1C23460B
S2140053700CEB0E24E31A1B12B342A8BF3346BB4203
S214005380B8BF3B46A94222F8023BEAD1C464F0BD4E
S214005390C46CDDE70180FFFF826943699B1A44BF46
S2140053A002699B18EF2BD4BF0020012070470246ED
S2140053B043698069181A44BF1369C01870470020F3
S2140053C070470020704770B50446184672B1A6694B
S2140053D06569AD1B44BF2369ED18EF2D15DD0E443E
S2140053E0E168520001EB4601FEF722FDA36922693F
S2140053F0F0339342A361A8BF00234FF00100A8BF7B
S214005400A36123680133236070BD0020FCE738B534
S21400541015460269044622B9C0E90625C160456101
S21400542038BDE36840696A0003EB4000FEF700FD04
S21400543063692B446361626923699A42A4BF0022B0
S2140054406261E26915449D42D4BFE561E361E7E726
S2140054502DE9F04F834699B00F93DBF81030099191
S2140054601B681492B3F85210BDF88800DBE90132CD
S2140054705B6D16932C2300FB03F3101DB2F99423E7
S2140054800B92BDF88C20179200EB030A002900F05F
S214005490A783C35AA3F10103B3FA83F35B0903930B
S2140054A0BAF80400DAF8103011930128DAF814304C
S2140054B0029340F38E83002301241094DC07DAF86D
S2140054C008201946D0465E4640F12282169B03F518
S2140054D08053B3F84C46F369640803EB4403079320
S2140054E08B1C149C0799109F0A93834208BF214681
S2140054F0D8F80C40079134F8173015977D00C3F3A1
S214005500C011089532F81730023D5B1A645B0E95A1
S2140055109BB20D93230602EB47010AD5535B099C09
S21400552003F10043013B4FF4805024F81300B8F811
S2140055300400B8F80640002C00F04383D8F8185052
S2140055400E9B089FEB5AED5B0695AB4280F0CD8133
S214005550DDF844B0002C00F09280D8F81C20069F9E
S21400556032F81310D8F820205D1C32F8134004954A
S214005570BD424FEA430316BFD2180D9D5588099ABF
S21400558002EB4101D8F82420D25A039B2746002B71
S21400559040F0828091460B9B002BA2BF09F10103CD
S2140055A0C3F34F0305930A9BB8BF0592834200F0EE
S2140055B04282039B002B40F03081B3685200D3F840
S2140055C09003FEF735FCB368291BD3F89023D3F875
S2140055D0EC030C910B46CDF80090029902F018FDF2
S2140055E0D8F80C30089A9B5A03F00703032B31D8DF
S2140055F0DFE813F0EF00CB0058000400AC4229D2DD
S214005600691E091BB26814FA81F30799D2F8EC23D5
S21400561001EB44040231043A01EB430104E01BB2FF
S21400562024F8023BA14215D0BBF8003052F8040F14
S21400563083FB00301B0C43EA0043B7488342C0F2AA
S214005640CD82B3F5004FEADB47F6FF7324F8023B42
S214005650A142E9D10C9A059B02FB03F3029A02EBE6
S21400566043030293BDF81030069A9A4240F23781FF
S214005670B8F80640B8F80400002C7FF46EAF01338B
S2140056800E9A0493D8F8083009999A5A039B0D9DF0
S2140056902746002B3FF47EAF01324FEA6209C2F381
S2140056A04F0278E70C9B03EBD37929F00109A1445C
S2140056B0A1453EDDB368DDF81CC0D3F8ECE31295D7
S2140056C012E0B2F5004F80F2618212B2002B0A801F
S2140056D0654427DBB3F5004F80F25B821BB20234D1
S2140056E0A4B24C452B8023DA631CDB1B61005EF8FA
S2140056F023A03BF81420E31B8D1C5EF823003BF828
S214005700053082FB002083FB0A3A120C1B0C52EA7F
S2140057100042614443EA0A43D3D50022002B0A80A4
S2140057206544D7DA0234A4B200234C452B80DBDB79
S214005730129DA5428ED9681E001BB26814FA80F32B
S214005740E71B0798D2F8EC1307F18047013F00EB00
S2140057504404023001EB870100EB4300BBF8003045
S21400576051F8042F83FB02321B0C53EA02434FF01E
S214005770000505D4B3F5004FB4BF1DB247F6FF755C
S21400578024F8025BA042E9D164E7AC42BFF462AF02
S214005790013D2D1B079B14FA85F504F10044013CDE
S2140057A003EB440403EB45050027B368BBF8000091
S2140057B0D3F8EC33DB5980FB0303000C40EA0340CC
S2140057C002F040FF24F8020FA54207F10407ECD1CF
S2140057D040E7AC42BFF43EAF013D2D1B079B14FAD9
S2140057E085F504F10044013C03EB440403EB450556
S2140057F00027B368BBF80000D3F8EC33DB5980FB16
S2140058000303000C40EA034003F0B0F824F8020F4C
S214005810A54207F10407ECD11CE7B3689200D3F861
S2140058209003FEF705FBB3680299D3F89023D3F8EC
S214005830EC03CDF800902F1B3B4602F00DFDD8F888
S2140058400C30089A9B5A03F00703032B39D8DFE87D
S21400585003F0C5996702AC4233D205F1FF3CACEBCE
S214005860040CB26814FA8CF30BF1020CD2F8EC5369
S2140058700CEB430C079B0BEB4400043D03EB44048A
S21400588004E012B2844524F8022B1AD055F8042FEF
S21400589030F8023B02FB03F3204A82FB0312D118C6
S2140058A0B3F1794F4FEAE372C2EBE12240F3948101
S2140058B0B3F1E06FE5DB47F6FF72844524F8022B70
