S02500006275696C642F64656275672F73656E736F72795F77616B657570776F72642E7333379F
S3150800000000200020C1070008BD070008BD0700083A
S31508000010BD070008BD070008BD070008BD070008A2
S31508000020BD070008BD070008BD070008BD07000892
S31508000030BD070008BD070008BD070008BD07000882
S31508000040BD070008BD070008BD070008BD07000872
S31508000050BD070008BD070008BD070008BD07000862
S31508000060BD070008BD070008BD070008C13800081D
S31508000070CD380008BD070008BD070008BD07000801
S31508000080BD070008BD070008BD070008BD07000832
S31508000090BD070008E10B0008BD070008BD070008FA
S315080000A0BD070008BD070008BD070008BD07000812
S315080000B0BD070008BD070008BD070008BD07000802
S315080000C0BD070008BD070008BD070008BD070008F2
S315080000D0BD070008BD070008BD070008BD070008E2
S315080000E0BD070008BD070008BD070008BD070008D2
S315080000F0BD070008BD070008BD070008BD070008C2
S31508000100BD070008BD070008BD070008BD070008B1
S31508000110BD070008BD070008BD070008BD070008A1
S31508000120BD070008BD070008BD070008BD07000891
S31508000130BD070008BD070008BD070008BD07000881
S31508000140BD070008BD070008BD07000855350008AB
S31508000150BD070008BD070008BD070008BD07000861
S31508000160BD070008BD070008BD070008BD07000851
S3150800017010B5054C237833B9044B13B1044800E095
S3150800018000BF0123237010BD90210020000000004D
S315080001907C6D020808B5034B1BB10349034800E010
S315080001A000BF08BD00000000942100207C6D0208F5
S315080001B0A3F5803A704700BF174B002B08BF134BB7
S315080001C09D46FFF7F5FF00218B460F461348144A54
S315080001D0121A03F0A3FD0E4B002B00D098470D4BC7
S315080001E0002B00D098470020002104000D000D4880
S315080001F0002802D00C4800E000BF03F06BFD200089
S31508000200290003F0D6FA03F051FD00BF00000800EC
S3150800021000000000000000000020002090210020BF
S315080002209877002000000000000000000F207047AB
S31508000230202808B515DC032804DC0138012808D96C
S315080002400E200DE00123043803FA00F0084B18428B
S31508000250F6D0012304220921022002F0AFF900207A
S3150800026008BD4028ECD1012304220821F4E700BF89
S315080002701100001008B501213A2000F047FF03F0ED
S31508000280A2FA4020FFF7D4FFBDE8084000F0E8B91D
S3150800029001213A2000F03ABFF0B54B1E012B074664
S315080002A00E468BB07CD83F4D01AC0FCD0FC40FCD99
S315080002B00FC42B6801213A20236000F027FF012193
S315080002C0292000F023FF002301220421032002F045
S315080002D075F9032100230846042202F06FF9042267
S315080002E000230521032002F069F905238DF804305F
S315080002F001238DF818304FF44073012E01A92A48BE
S315080003004FEA871708BF8DF82360ADF820300397AA
S3150800031002F0BEFA0D22254B1A62254A1A634FF0DF
S3150800032003125A6302F500325A6200F0DFFB00211D
S31508000330204800F0ABFB044618B1012420460BB058
S31508000340F0BD1D4A012ED37823F03C0343F0340355
S31508000350D370D37C23F03C0343F03403D37412D117
S315080003600146164800F092FB0028E6D1144AD378D5
S3150800037023F03C0343F03403D370D37C23F03C03CF
S3150800038043F03403D3740F4B0F4A1E7000231370C7
S315080003900E4A13700E4A137001220E4B1A70CDE7DF
S315080003A02124CBE72CDE000800C0055000C7035007
S315080003B003000400B021002000200020B421002002
S315080003C020200020BA210020BB210020D4210020B3
S315080003D0B9210020B8210020184B73B51B78002BD3
S315080003E028D0174D2C783CBB164A174E116817486B
S315080003F013693140014311603340154903431548D9
S315080004009160136191610094134B1449006800F0E0
S31508000410A1FB134B1B78012B07D1124800942346E6
S31508000420114A1249006800F095FB012300202B7041
S3150800043002B070BD1120FBE70220F9E7B8210020C1
S31508000440B9210020002000200F80FFCFF07F003068
S31508000450C8210020B02100204105000840200020C6
S31508000460BA210020B421002020200020502000209E
S31508000470184B2DE9F0411B7804460D4616461BB36A
S31508000480154B1B7813BB154F3B78FBB9DFF860801B
S3150800049098F800304B43B3F5006F19D8104B1B780A
S315080004A00BB9FFF799FF98F800000E4B68431860E0
S315080004B00D4B1C6004EB40045C600C4B00201E6076
S315080004C001233B70BDE8F0811120FBE70220F9E724
S315080004D02120F7E7B8210020BB210020D4210020E5
S315080004E0B9210020C0210020CC210020AC21002009
S315080004F0BA21002010B50C4C237893B10B4B186821
S3150800050000F04EFB0A4B1B78012B03D1094B1868E8
S3150800051000F046FB0020084B20701870074B187037
S3150800052010BD0220FCE700BFB9210020B021002041
S31508000530BA210020B4210020BB210020D4210020AC
S31508000540F8B53B4D2B78002B42D03A4811F0010FF5
S3150800055000F1100308BF1946374E384B32681C683D
S3150800056018BF0146A2422CD2CB786FF30513CB7085
S31508000570334B1B6803EB42038B60A31AB3F5006F7A
S315080005800B8817D940F2FF7402F5006264F30E1364
S315080005900B803260C37803F03003302B08D1C37C5C
S315080005A003F03003302B03D100232B70FFF7A2FF93
S315080005B00120F8BD671EBA1A62F30E130B80346069
S315080005C0E8E70A681F4B13430B601F4B8B60E1E794
S315080005D01E4B1B78002BEBD0C943164801F00103CC
S315080005E000EB0314E2781D01C2F30112032A0FD1AE
S315080005F0124A46591268013AC2F30A01144A3240AD
S3150800060042EA01124251134A52F82330A360CFE757
S31508000610114A1268002ACBD01049084809780068A0
S31508000620B0FBF1F10B4850F823009047C0E700BF34
S31508000630BB21002000200020C4210020C02100206A
S31508000640BC210020F07F0030C8210020D4210020E2
S315080006500F80FFCFCC210020AC210020BA2100203A
S315080006602DE9F041484C8EB0264601AD0FCE0FC598
S31508000670336814342B6006AD0FCC0FC594E80F0011
S3150800068085E80F0001213A2000F040FD012157209E
S3150800069000F03CFD4FF480733C4EADF81C303C4BEB
S315080006A03046039301A906AB059301F0BDFE01236D
S315080006B004220321022001F081FF022100230846BB
S315080006C0012201F07BFF012304221946022001F0D2
S315080006D075FF042200210123022001F06FFF2D4C33
S315080006E02D4B0125C4F8C8344FF00213C4F8C4349E
S315080006F003F58033C4F8CC341C2304F50058C4F839
S31508000700B4344FF4487002F05BFF04F580571420A8
S31508000710C8F8A05002F054FF2320C7F8A05002F0F2
S315080007204FFFB9213046C8F8A05001F0D1FC00238C
S3150800073003211A460220C7F8A05001F03FFF002304
S3150800074002211A46084601F039FF2B46294600229F
S31508000750022001F033FF00222B461146022001F049
S315080007602DFF304601F07AFC00215720C4F8C81442
S31508000770C4F8C414C4F8CC14C4F8B41400F0C6FC05
S315080007800EB0BDE8F08100BF50DE000800000A5038
S31508000790E070720000C003500200010005490A68B3
S315080007A01318054883428CBF4FF0FF320B60104682
S315080007B0704700BF6020002000000420FEE700000C
S315080007C008B500F02DF8124B12498B4212D30020BF
S315080007D0114B12498B4218D3FFF7EEFC186850F8F4
S315080007E02240586840F82240013298688242F5D380
S315080007F00C33EAE70022F8E71C6844F822000132C5
S315080008005C68A242F8D30833E4E70022F8E700BFA1
S31508000810846D0208906D0208906D0208906D0208BA
S315080008204FF480414FF0FF30114B124A10B59A60D1
S31508000830D3F8882042F47002C3F888200E4A9166DD
S315080008400E4901F5005210660D4850660220C3F89D
S31508000850D000BFF34F8FBFF36F8F01244FF440339F
S315080008600848C0F88041D36004600B6110BD00BF22
S3150800087000ED00E0000000080090005000800044F1
S31508000880F7FF370000E100E0014B1868704700BF2A
S3150800089068200020084B1B6F03F00703022B04D0C7
S315080008A0032B05D0012B05D0FEE7044B18687047CB
S315080008B0034BFBE703487047008000506820002080
S315080008C06C200020002D310108B5FFF7E3FF054B2A
S315080008D01B6FC3F303330133B0FBF3F0024B18600D
S315080008E008BD00BF00800050642000200048704703
S315080008F000B4C404014B1868704700BF6C20002080
S31508000900054B1860054B1B6F03F00703032B01D13A
S31508000910FFF7DABF704700BF6C2000200080005048
S315080009200020704700487047002D31014FF0B4434E
S315080009309868C0F304400C2822D8DFE800F00921A3
S3150800094021212121071719211B1D1F000F48704758
S315080009509B6803F04073B3F1807F13D0B3F1007F37
S3150800096012D00B4A002B08BF10467047094870473B
S315080009700948704709487047094870470948704749
S31508000980002070470848704708487047405DC60011
S3150800099000093D000024F400C0EA210180BA8C0158
S315080009A00048E801005A620280841E0040420F0097
S315080009B04FF4004070474FF47A707047014B18683F
S315080009C0704700BF70200020D0E9000318478368ED
S315080009D000681847C3680068184710B5044601211F
S315080009E03A2000F093FBA3782078B3FA83F3042225
S315080009F061785B0901F0E2FD002010BD10B5012207
S31508000A0043780178847830209A40054B00FB0133FF
S31508000A101CB903F501531A6010BD03F58253FAE7B2
S31508000A2000C0035010B5012243780178847830203D
S31508000A309A40054B00FB01331CB903F582531A6033
S31508000A4010BD03F50153FAE700C0035001224378AD
S31508000A5001789A4030235943014B5A50704700BFDA
S31508000A6040F00350102130230246007813FB001390
S31508000A70054950785B58C34003F0010093780BB9D9
S31508000A8080F00100704700BF30C0035038B5124BE4
S31508000A9005461B78DBB1E0B101F08FF90F4A002358
S31508000AA01146147B54B92B6001251A0101EB031377
S31508000AB01D738C5001F087F9204638BD0133082B89
S31508000AC002F11002EDD101F07EF90548F5E7054877
S31508000AD0F3E70548F1E700BF58230020D821002096
S31508000AE0048000F0028000F0018000F0154B13B579
S31508000AF01868002301908DF8043001F05EF9124B56
S31508000B001C7824B101F05FF9104802B010BD01222B
S31508000B101A7001F058F90E4B01A81C731C7783F85C
S31508000B202C4083F83C4083F84C4083F85C4083F8BB
S31508000B306C4083F87C4008238DF8073001F07EFD71
S31508000B402046E2E784DE000858230020038000F0F0
S31508000B50D8210020F8B50D4D2D7885B1072810DC71
S31508000B600B4D060105EB0014277B67B1AB51002539
S31508000B70069BA560636001F093FD2846F8BD05480D
S31508000B80FCE70548FAE70548F8E700BF58230020C0
S31508000B90D8210020028000F0018000F0078000F0D4
S31508000BA00A4A08B5127852B107280AD8084A02EB49
S31508000BB000131B7B3BB101F0C1FD002008BD0548B1
S31508000BC0FCE70548FAE70548F8E700BF5823002080
S31508000BD0D8210020028000F0018000F0078000F094
S31508000BE02DE9F843174B1F6D5B6D1F4000D5FEE7D7
S31508000BF001260025144CDFF85480DFF8549037425C
S31508000C0017D02368C8F850609BB1A16828460131FF
S31508000C106268A1609847637B012B0AD148B909EB42
S31508000C2045131A7B60F341021A731A7F60F3410277
S31508000C301A770135082D4FEA460604F11004DED16D
S31508000C40BDE8F88300000450D82100200020045095
S31508000C5058220020044BD3F88420D206FBD4D3F8BC
S31508000C608400C0F3811070470040005038B5174B18
S31508000C700546D3F820310C4603F00703013B052B44
S31508000C8020D8DFE803F0030B130F171BFFF7FCFD53
S31508000C90052305B1286004B1236038BDFFF72AFE95
S31508000CA00323F6E7FFF742FE0723F2E7FFF73AFECC
S31508000CB00223EEE7FFF7E8FD0623EAE7FFF71AFE49
S31508000CC00423E6E700231846E3E700BF0080005048
S31508000CD038B5174B0546D3F828310C4603F00703F9
S31508000CE0013B052B20D8DFE803F003131B0F0B1776
S31508000CF0FFF7CAFD052305B1286004B1236038BD96
S31508000D00FFF7C2FD0623F6E7FFF710FE0723F2E713
S31508000D10FFF7F0FD0323EEE7FFF7ECFD0423EAE710
S31508000D20FFF700FE0223E6E700231846E3E700BFC5
S31508000D300080005073B50D460021114B0191D3F880
S31508000D408041064604F00304022C13D0032C0CD071
S31508000D50012C13D101A8FFF789FF10240EB1019BBE
S31508000D60336005B12C6002B070BDFFF7DFFD0724C4
S31508000D700190F3E7FFF7D6FD0190EFE70C46EDE7A4
S31508000D8000800050002337B50193154B0546D3F86C
S31508000D9020320C4603F00703013B032B1ED8DFE87D
S31508000DA003F0020E1318002101A8FFF791FF122382
S31508000DB00DB1019A2A6004B1236003B030BDFFF774
S31508000DC0B5FD07230190F3E7FFF7F2FD0A2301902B
S31508000DD0EEE7FFF7F3FD09230190E9E70023E7E7CC
S31508000DE00080005038B5104B0546D3F840310C4604
S31508000DF003F00303022B0BD0032B0DD0012B0FD1CD
S31508000E00FFF7D6FD0A2305B1286004B1236038BD73
S31508000E10FFF7D4FD0923F6E7FFF7CDFD0C23F2E72C
S31508000E2000231846EFE700BF00800050002337B5BF
S31508000E300193164B0546D3F860320C4603F00703B8
S31508000E40013B032B1FD8DFE803F0020E191400211B
S31508000E5001A8FFF70BFF10230DB1019A2A6004B110
S31508000E60236003B030BD002101A8FFF7BBFF1123A3
S31508000E70F2E7FFF75BFD07230190EDE7FFF752FD69
S31508000E8002230190E8E70023E6E700BF0080005050
S31508000E90002337B50193164B0546D3F894320C4612
S31508000EA003F00703013B032B1FD8DFE803F0020E0C
S31508000EB01914002101A8FFF7D9FE10230DB1019AD4
S31508000EC02A6004B1236003B030BD002101A8FFF7F2
S31508000ED089FF1123F2E7FFF729FD07230190EDE7C4
S31508000EE0FFF720FD02230190E8E70023E6E700BFAD
S31508000EF00080005038B5134B0546D3F800320C462F
S31508000F0003F00703013B032B18D8DFE803F0020AB6
S31508000F100E12FFF74DFD0A2305B1286004B12360C0
S31508000F2038BDFFF74BFD0923F6E7FFF744FD0C2311
S31508000F30F2E7FFF7C9FC0F23800AEDE700231846FE
S31508000F40EAE700BF0080005038B5134B0546D3F8D2
S31508000F5008320C4603F00703013B032B18D8DFE8D9
S31508000F6003F0020A0E12FFF723FD0A2305B12860D3
S31508000F7004B1236038BDFFF721FD0923F6E7FFF723
S31508000F801AFD0C23F2E7FFF79FFC0F23800AEDE713
S31508000F9000231846EAE700BF0080005038B5104B1A
S31508000FA00546D3F840320C4603F00303022B0BD058
S31508000FB0032B0DD0012B0FD1FFF7FAFC0A2305B13D
S31508000FC0286004B1236038BDFFF7F8FC0923F6E76B
S31508000FD0FFF7F1FC0C23F2E700231846EFE700BF02
S31508000FE00080005038B5104B0546D3F860310C46E2
S31508000FF003F00303022B0BD0032B0DD0012B0FD1CB
S31508001000FFF7D6FC0A2305B1286004B1236038BD72
S31508001010FFF7D4FC0923F6E7FFF7CDFC0C23F2E72C
S3150800102000231846EFE700BF0080005070B505465C
S3150800103014460E4600F0BAFE296881EA040202EA5E
S3150800104006044C402C60BDE8704000F0B3BE0000BA
S31508001050B0F5207F1FD009D8B0F5007F15D003D88A
S3150800106068B1B0F5C07F0AD000200CE0B0F5607F0B
S31508001070FAD10B4BD3F88000C0F3011003E0084BFC
S31508001080186FC0F3033001307047054BD3F8900052
S31508001090C0F30460F7E7024B186FC0F38020F2E74D
S315080010A00080005002464FF48030104B10B5986609
S315080010B00020FFF7CDFF504341F671320C4BDC6937
S315080010C0DA635A6804F4803422F4401259B909499B
S315080010D088428CBF4FF480100020104358600CB132
S315080010E00022DA6310BD0449F2E700BF0090005001
S315080010F000000350005A6202002D310108B5FFF7BF
S31508001100F5FBBDE808400021FFF7CCBF430905D031
S31508001110012B0DD0022B094B18BF002300F01F002E
S3150800112041B103F58053012202FA00F018607047B6
S31508001130034BF3E703F50053F5E700BF688000505B
S31508001140648000501FB5002280280446019200F0F2
S31508001150BA8048D8002800F0BA80A0F120043D2CB7
S3150800116054D83D2C52D8DFE814F0B200BE00B200C5
S31508001170BE00D700D700D700D700D700BE00E100D1
S315080011805B00F70081005B00BE00BE00BE00510098
S315080011905100510051005100510051005100BE004C
S315080011A0BE00BE0089000101BE0051005100510079
S315080011B05100510051005100510051005100510099
S315080011C051005100D700B200B200B200FC005B002B
S315080011D05B00060198006C00DC00510051005100CC
S315080011E051005100A900B0F5B06F00F09F802DD8CE
S315080011F0B0F5207F77D00CD8B0F5C07F67D0B0F5B2
S31508001200007F67D0B0F5807F00F09580019804B024
S3150800121010BDB0F5607F6CD00DD8B0F5407FF5D124
S31508001220FFF752FB02464FF42070FFF711FFB2FB9F
S31508001230F0F0400849E0B0F5806F6DD0B0F5A06FCA
S31508001240E4D1002101A8FFF79DFDDFE7B0F5106F97
S3150800125000F0878017D8B0F5E06F00F087800AD8CD
S31508001260B0F5C06F78D0B0F5D06FCFD1002101A806
S31508001270FFF740FECAE7B0F5F06FC7D1002101A815
S31508001280FFF7B0FEC2E7B0F5406F4AD013D8B0F505
S31508001290206F70D0B0F5286FB8D10021384B039174
S315080012A0D3F8703203F00303012B02D103A8FFF72A
S315080012B099FD039B49E0B0F5486FA7D1002101A825
S315080012C0FFF7E6FDA2E7FFF7E5FA01909EE7FFF7CD
S315080012D0FBFAFAE7FFF7DEFA02462046FFF7B8FE02
S315080012E0B2FBF0F0F1E7FFF7EFFA02464FF4207091
S315080012F0F4E7234BD3F8803003F00303012B04D023
S31508001300022B06D04FF46070E8E7FFF7C3FA0246EF
S31508001310F8E7FFF70BFBFAE7002101A8FFF7A6FCA1
S3150800132074E7002101A8FFF7D3FC6FE7002101A8A5
S31508001330FFF700FD6AE74FF0E02302921B695B079F
S3150800134005D5FFF7C1FA0290029B01935EE703A950
S3150800135002A8FFF747FDF7E7002101A8FFF742FDBE
S3150800136054E7002101A8FFF7EFFD4FE7002101A888
S31508001370FFF714FE4AE7002101A8FFF757FD45E7E6
S315080013800080005008B58020FFF7DCFE034B98422A
S315080013909EBF4FF48032024B1A6708BD005A62029C
S315080013A000A000501FB50023B0F5807F019300F020
S315080013B0C38064D85D2855D84C2807D82D2847D827
S315080013C023282BD8019805B05DF804FB4D38102862
S315080013D0F8D801A353F820F02F150008C513000804
S315080013E0C5130008C5130008E1140008C513000852
S315080013F0C5130008CD150008FF140008A514000839
S31508001400C3150008C5130008C5130008C51300084E
S31508001410C5130008C5130008D7150008243809287D
S31508001420D0D801A353F820F02F1500082F1500086F
S315080014302F1500082F1500082F150008C5130008DA
S3150800144025150008C5130008C1140008651500080D
S315080014503D2800F082803E28B4D1002001A9FFF77C
S315080014609DFDAFE78028ADD1604B1B6F03F00703E6
S31508001470013B032BA6D8DFE803F05350878FB0F55E
S31508001480F06F6AD021D8B0F5B06F4BD00FD8B0F551
S31508001490607F00F0858095D3B0F5806F47D0B0F5B2
S315080014A0A06F8FD1002001A9FFF76CFC8AE7B0F581
S315080014B0D06F57D0B0F5E06FCFD0B0F5C06F81D1FF
S315080014C0002001A9FFF78EFC7CE7B0F5206F7DD0E0
S315080014D00BD8B0F5086F4AD0B0F5106F7FF472AF2D
S315080014E0002001A9FFF730FD6CE7B0F5406F68D022
S315080014F0B0F5486F6FD0B0F5286F7FF463AF002161
S315080015003A4B0391D3F8703203F00303012B67D0EB
S31508001510022B14BF0B46152300E00523019351E760
S315080015200223FBE7002001A9FFF704FC4AE7002095
S3150800153001A9FFF79BFB45E702934FF0E0231B69E0
S315080015405B0705D5FFF7C0F90D230393039BE5E772
S3150800155003A902A8FFF746FCF8E7002001A9FFF750
S3150800156041FD2FE7002001A9FFF7C4FC2AE71F4B1E
S31508001570D3F8003103F00303022B07D0032B09D05D
S31508001580012B0BD1FFF7B6F90323C7E7FFF716FAC6
S315080015900923C3E7FFF7C4F90823BFE70123BDE71B
S315080015A0124AD2F8802002F00302012A05D0022A44
S315080015B0B4D1FFF7BBF90723B0E7FFF76BF90E23A2
S315080015C0ACE7002001A9FFF783FBFBE6002001A991
S315080015D0FFF72CFCF6E6002001A9FFF759FCF1E617
S315080015E003A8FFF7FFFB112398E700BF0080005010
S315080015F038B504468020FFF7D5FE032800F083801F
S315080016004FF48012504B4FF0A0615A6645F60E0310
S315080016104E4AC2F880304E4B99624FF4803103F53A
S3150800162080539962916D11F48031FBD1D4E900039E
S315080016301B0543EA0063E07B0343207B43EA004340
S31508001640607B43EA0033A07B43EA80131361906909
S31508001650D4E904531B0643EA856300F000400343BC
S31508001660A07EE57E0343207E43EA0043607E43EA8C
S3150800167000239361E069136A00280CBF0022082240
S3150800168023F00F0343EA000343EA850343EA020310
S315080016902E4A304D136237D194F82430916A94F863
S315080016A02000DB000D4043EA401394F821102B4339
S315080016B043EA011343F480339362274B916D33EA6F
S315080016C00101FBD14FF08071214881621369A56839
S315080016D023F4700343EA055313614FF00043836113
S315080016E094F822300BB91D4B996294F823301BB934
S315080016F04FF48032194B9A6294F825301BB1134B7C
S31508001700174AC3F8802038BD022808D11161154848
S3150800171091614FF408524FF47F41FFF787FC0B495C
S3150800172094F822308A6A94F820001B06154043EA8A
S31508001730401394F824202B4343EAC20394F8232049
S3150800174043EA02438B62D7E7009000500040005AF4
S315080017500050005AC7FFFEFE030001000060005A51
S31508001760F1A7FFFF3440005A014B93F90000704778
S3150800177074200020F0B5D0E901434FF400061A4A58
S315080017804178057856664FF4D156022702F5B832E5
S315080017905662164E4F2977604FF0010728BF4F2132
S315080017A006F5805677601669F603FCD441EA0521EA
S315080017B051611B01417B43EA04230B43017B43EA46
S315080017C041039360C37B817B1B0143EA4113417C40
S315080017D00B43017C43EA41035360837C13B16FF4E6
S315080017E0D1535362F0BD00BF009000500010025064
S315080017F0014B1880704700BF762000200029CCBF17
S3150800180001210021FFF74EBCB0F5207F10B50C462C
S3150800181057D008D8B0F5007F48D003D830B3B0F514
S31508001820C07F23D010BDB0F5607FFBD129492A4877
S31508001830D1F8FC2012F080721EBFD1F8FC3023F0DC
S315080018408073C1F8FC30D0F88030611E23F0300474
S3150800185044EA0114C0F88040002AE3D01D4AD2F8B1
S31508001860FC3043F08073C2F8FC30DBE7FFF746FC38
S3150800187000F036F84FF48031184B174A1967136F82
S31508001880611E23F4704444EA01341467FFF71CF818
S315080018900446FFF7DFF9C0F102012046FFF7AEFF65
S315080018A000F024F8BDE81040FFF76CBD0A4A01397C
S315080018B0D2F8903023F0F85444EA0164C2F8904014
S315080018C0B0E7054B013C196F21F4806141EA842495
S315080018D01C67A7E700ED00E000800050009000506C
S315080018E002214FF42070FFF78FBF000008B54FF4B0
S315080018F0C070FFF727FCBDE80840044988428CBF42
S31508001900022101214FF42070FFF77EBF80F0FA0212
S31508001910B0F5807FF8B50C4600F04E816BD85D288F
S315080019205DD84C2804D82D2844D8232828D8F8BDB3
S315080019304D381028FBD801A353F820F0991B00084E
S315080019402F1900082F1900082F190008931A0008E4
S315080019502F1900082F1900084D1D0008CB1A00087A
S31508001960231A00082D1D00082F1900082F19000832
S315080019702F1900082F1900082F1900086D1D0008D7
S3150800198024380928D3D801A353F820F0991B000856
S31508001990991B0008991B0008991B0008991B000849
S315080019A02F190008791B00082F190008591A000872
S315080019B0671C00083D2800F046813E28B7D1093C3F
S315080019C0032C8CBF0021B04BB04A98BF195DD2F8E2
S315080019D0403223F003030B43C2F84032A7E78028BE
S315080019E0A5D18B1E062B00F2C480DFE803F0BFAD3D
S315080019F0C27EC2C2BC00B0F5F06F00F024813BD8AD
S31508001A00B0F5B06F00F0B8801BD8B0F5607F00F075
S31508001A1067818CD3B0F5806F00F0BE80B0F5A06FFB
S31508001A2085D1073C0B2C8CBF0021994B974A98BF50
S31508001A30195DD2F8203223F007030B43C2F820328F
S31508001A4075E7B0F5D06F00F00E81B0F5E06FB6D04F
S31508001A50B0F5C06F7FF46BAF093C032C8CBF002137
S31508001A608C4B8A4A98BF195DD2F8403123F003039C
S31508001A700B43C2F840315AE7B0F5206F00F0668193
S31508001A8017D8B0F5086F00F01B81B0F5106F7FF41A
S31508001A904EAF093C062C8CBF00217F4B7B4A98BF72
S31508001AA0195DD2F8083223F007030B43C2F808324F
S31508001AB03DE7B0F5406F00F03981B0F5486F00F0AA
S31508001AC05581B0F5286F7FF432AF112C00F05E8196
S31508001AD0152C14BF002102216C4AD2F8703223F06B
S31508001AE003030B43C2F8703221E7002502264FF4A0
S31508001AF080370121022000F07DF9FFF7FFFAFFF792
S31508001B00EFFE664B614A1F67136F23F007033343E3
S31508001B101367FEF7D9FE0646FFF79CF8C0F10201E7
S31508001B203046FFF76BFE0121002000F0A3F9FFF70E
S31508001B30DDFEFFF727FC002D7FF4F9AE032C7FF4BA
S31508001B40F6AE574B9F62F2E64FF48012534B0E46A1
S31508001B505A664FF48032534B9D6A03F58053C5F39A
S31508001B6000659A62C3E700250426C0E7002501261A
S31508001B70BDE700252E46BAE7023C0E2C8CBF002195
S31508001B80494B424A98BF195DD2F8803123F00303C6
S31508001B900B43C2F88031CAE6023C052C8CBF0021F3
S31508001BA0424B3A4A98BF195DD2F8203123F0070311
S31508001BB00B43C2F82031BAE6A1F10904082C3FF616
S31508001BC0B6AE01A353F824F0ED1B0008ED1B000880
S31508001BD02F190008ED1B00081B1C00082F19000808
S31508001BE02F1900082F190008ED1B00084FF4803242
S31508001BF0264B2F49586E03F580535A664B6A43F0B5
S31508001C0001034B62C1035CBF2A4B5A664FF0E022C0
S31508001C10136923F00403136189E64FF480321B4BE2
S31508001C202349586E03F580535A664B6A23F001031D
S31508001C304B62C3035CBF1F4B5A664FF0E022136921
S31508001C4043F00403E7E7093C032C8CBF00211A4B39
S31508001C500E4A98BF195DD2F8603123F003030B438F
S31508001C60C2F8603163E6093C062C8CBF0021134B91
S31508001C70064A98BF195DD2F8003223F007030B43D2
S31508001C80C2F8003253E600BF9DDE0008008000500F
S31508001C90B8DE00089DDE0008A1DE000800900050AE
S31508001CA00060005A0040005A88DE000897DE0008E7
S31508001CB000C0075000A000509DDE0008A1DE000805
S31508001CC0CC1E062C8CBF0021314B324A98BF195DB9
S31508001CD0D2F8003123F003030B43C2F8003126E69D
S31508001CE02D49063CD1F8FC2012F080721EBFD1F8AF
S31508001CF0FC3023F08073C1F8FC30082C8CBF002020
S31508001D00264B244998BF185DD1F8803023F0030389
S31508001D100343C1F88030002A3FF409AE1E4AD2F8C0
S31508001D20FC3043F08073C2F8FC3000E6023C052C18
S31508001D308CBF00211A4B174A98BF195DD2F8283173
S31508001D4023F007030B43C2F82831F0E5023C0F2CB9
S31508001D508CBF0021134B0F4A98BF195DD2F8603229
S31508001D6023F007030B43C2F86032E0E5023C0F2C70
S31508001D708CBF00210C4B074A98BF195DD2F89432E4
S31508001D8023F007030B43C2F89432D0E50121A3E6FA
S31508001D90A8DE00080080005000ED00E0AFDE000875
S31508001DA097DE0008C4DE0008C4DE0008EFF31080E2
S31508001DB072B6704700B962B67047EFF311803023E8
S31508001DC083F31188704780F311887047024A536B72
S31508001DD00342FCD1704700BF00400950034A01790D
S31508001DE0D36E23F030030B43D36670470040005090
S31508001DF070470000F8B504461C4BD3F88420D1067A
S31508001E00FBD4D3F88430C3F381139C422CD0FEF75D
S31508001E1041FD012C064602D12146FFF7EFFCFFF7EC
S31508001E20C5FF4FF00072124B07465A662046FFF769
S31508001E30DFFF4FF480630D4D621E93402B676B6E78
S31508001E409A0103D4D5F884309B060AD53846FFF79D
S31508001E50B1FF022C08D13046BDE8F8400021FFF753
S31508001E60CDBCD5F88430EAE7F8BD00BF0040005085
S31508001E700060005007B518B90191FEF70BFD0199EE
S31508001E80064B1B7843B1064B984205D8012003B090
S31508001E905DF804EBFFF7AEBF0220F8E759230020F0
S31508001EA0005A6202704700004FF00042154B10B509
S31508001EB05A664AF6CD3314494C6C0B6404F0010497
S31508001EC088B90120FFF782FF4B68DB0704D50F4B63
S31508001ED058600B6BD807FCD514B10B4B0C4A1A6427
S31508001EE0FFF7E0FF10BD0B6B1A07FCD42022074B47
S31508001EF09A620122A3F580535A60034A936A9B06A5
S31508001F00FCD5E9E7009000500040095000600950F0
S31508001F103254FFFF4FF0004238B5164B01465A6659
S31508001F204AF6CD33144C154A656C236443780B2066
S31508001F305B0043F00103D363FFF748FF63688A78C1
S31508001F4023F4F87343EA02136360CA784B7943EAC9
S31508001F500223A3600A798B7943EA0223236108786E
S31508001F60FFF7A2FFEB0744BF054B2364FFF79AFF71
S31508001F70012038BD00900050004009500040005034
S31508001F803254FFFF4FF00042124B70B55D6E03F5F9
S31508001F9080535A664AF6CD3304460F4980204E6C64
S31508001FA00B64FFF713FF0B6A23F00F030F2C94BF84
S31508001FB0234343F00F030B62F30744BF074B0B643D
S31508001FC0002DA2BF4FF00042054B5A66FFF76AFF85
S31508001FD070BD00BF00800050004009503254FFFF1A
S31508001FE000A00050436D0B42FCD1704708B543680A
S31508001FF0DA0714D58368DB0702D50369D90707D53D
S315080020000A2350218363FFF7EDFF836C9A07FCD1FF
S31508002010012200F500535A6043689B07FCD408BDAB
S3150800202038B50C460121024600F58053596004F084
S315080020300F0540F6FF71FFF7D5FF78218563FFF797
S31508002040D1FF04F00103610748BF43F00203916C16
S3150800205001F003019942FAD138BD000010B5FFF727
S31508002060C5FF042300F5805100F500520B6113618A
S315080020700B6113610B6113610B611361202341F23C
S31508002080020103610023C360836041614FF4A0210C
S315080020908361836541620549C36103628362C362E2
S315080020A043630365D164036310BD00BFFF3F0D039F
S315080020B009B9FFF79BBFFFF7B3BF836C1B06FCD5B7
S315080020C0C06BC0B27047836C5B06FCD54164704731
S315080020D0836C5A06FCD54164836C1B06FCD5C06B21
S315080020E080B27047F8B505461446084641B9344BE0
S315080020F09D422FD0334B9D4208BF5720FFF722F849
S31508002100AB68DE072ED5B0FBF4F46E68013C16F01A
S31508002110010625D028212846FFF764FFAB6C9907EE
S315080021201AD1AB6CDA0719D4AB6C13F0020F0CBFDB
S31508002130002706272846FFF759FF286920F07F4021
S3150800214040EA04642C61DEB139462846BDE8F84009
S31508002150FFF7AEBF5620D1E70527EBE70927E9E7E2
S315080021603746EAE76B68AB6DAF68DB0707F0E00751
S3150800217048BF6400402F1BD003D8DFB1202F1BD0E7
S31508002180F8BD602F1AD0802FFAD1012604FB06F37A
S315080021904101B1FBF3F30C4A203B02EAC30228468D
S315080021A00121FFF71FFF2A63BDE8F840FFF71ABFB2
S315080021B00626EBE71026E9E70826E7E70426E5E71B
S315080021C00000015B00000A50F8FF7F00F8B51E46C4
S315080021D0436804460D4617461BB140F6FF71FFF7E4
S315080021E001FF2046FFF73AFFE9896B7B62690B43DB
S315080021F0298A22F44C520B4322F00F0213436361DF
S31508002200A2682B7E297B22F0804222F0E202194343
S3150800221011436A691143AA68A1601AB9A26842F013
S315080022200042A260E869002862D0A268017A42EA00
S315080022308152A260A268817A42EA4142A2608288FB
S31508002240A16802F4C0420A43A260A268417842EA41
S315080022508102A260A268417B42EAC102A260A2682A
S31508002260817B42EA0112A260A268817842EA812251
S31508002270A260C2798179520242EA8122E26002783A
S3150800228002F0FD01012908BFE168A2F1020204BFBC
S3150800229041F00401E160012A5A495B4A78D88C4228
S315080022A074D05A498C420CBF01214FF0FF3102EB22
S315080022B0411241F294414FF0020C42F801C0427AB1
S315080022C004F580518A621AB1E26842F40062E2605B
S315080022D0C27A6AB1E2684B4942F40042E260027B84
S315080022E08C424B4902F00F0208BF4A67C1F88020AA
S315080022F047B197F8202004F5805C002A57D00122C0
S31508002300CCF820207EB304F5805013B14FF4004377
S31508002310836596F821203B4B102A3E4957D89C42A4
S3150800232053D03A4B9C420CBF01234FF0FF33012791
S31508002330CF54768C3349B6F5006F374B55D88C4257
S3150800234051D032498C420CBF01214FF0FF31012791
S315080023505F54A36D324323F4F95323F01E0313434A
S31508002360A3650123836505212046FFF759FEAA6860
S3150800237012B16968FFF7B6FE20462978FFF798FE7E
S31508002380A36CDB4313F4405FFAD1F8BD00218EE756
S315080023908C420AD01D498C420CBF01214FF0FF31F7
S315080023A002EB411242F2944185E70021F8E797F8DB
S315080023B02210E06997F821200A4320F009010A4310
S315080023C042F00102CCF81C209CE70023AFE79C42B0
S315080023D007D00E4B9C420CBF01234FF0FF33022758
S315080023E0A6E70023FBE70021B1E78C4207D007499F
S315080023F08C420CBF01214FF0FF310227A8E70021CC
S31508002400FBE700BF0000015B00C0035000000A5054
S31508002410009003505C2300205A23002000231A460C
S31508002420FFF7D4BEFFF7FABF436870B504460D46FA
S315080024300E691BB140F6FF71FFF7D4FD2046FFF782
S315080024400DFE22696B7BA97B22F087020B4313439F
S3150800245043F08003236116B32A692369117823F0B0
S31508002460F8030B43117F43EAC113117943EA411379
S31508002470517A43EA0113D17B43EA81132361E16868
S31508002480D2E9053021F0F04121F4702103430B43D2
S31508002490117B527B43EA812343EAC233E360A36894
S315080024A0EA7B23F00303134343F00103A3602EB32F
S315080024B02A69A168538803F4C0430B43A360517982
S315080024C0A36843EA8123A3609379D079616A1B01E3
S315080024D0000203F0700300F4E06021F4772121F490
S315080024E0EE6103430B43117A527F090301F4E0417D
S315080024F012040B4302F470221343636263692A7B56
S3150800250023F00F0313436361B6B12B695A89A2619D
S315080025105A7B3AB11D4A944224D19A7B1C4902F04F
S315080025200F024A67DA7B3AB1184A944224D11B7CD7
S31508002530174A03F00F031367D5E901122046FFF780
S31508002540D1FD05212046FFF76BFD0021FFF74AFD67
S315080025502B78A363FFF746FDA36CDB4313F4405FB8
S31508002560FAD170BD0B4A944201BF9A7B084902F022
S315080025700F02C1F88020D5E7064A944201BF1B7CAA
S31508002580A2F5CE2203F00F03D367D5E70000015B5F
S315080025900090035000000A5070B5054614460E46D2
S315080025A0FFF704FC296881EA040202EA06044C40A3
S315080025B02C60BDE87040FFF7FDBB00002DE9F04137
S315080025C005460F461E4690464AB101233022194C4D
S315080025D08B4002FB00443EB304F5825423600F216E
S315080025E0072F05EB450388BFA7F108044FEA031335
S315080025F0114895BFBC00A40004330C3308FA04F252
S31508002600A1401844FFF7C8FFB8F1000F0AD101210D
S315080026103020084A01FA07F700FB05223EB102F509
S3150800262082521760BDE8F08104F50154D6E702F539
S315080026300152F6E700C0035030C0035010B501211F
S3150800264004462020FEF762FD01212120FEF75EFDEB
S315080026500122114B5A60227812069A606178A27894
S3150800266042EA01429A61FF229A6200229A631A6438
S315080026704FF000425A654FF0FF324FF4001103F550
S3150800268000531A65054AC2F88011E3781B01DBB2CC
S3150800269082F81533116010BD0000045000E100E017
S315080026A02DE9F0410125C3B2D1F8008091F80AC09E
S315080026B00F7B91F80DE09D400C46CB7A1C491D4EC8
S315080026C00D65810001F1A04101F58821C1F804805A
S315080026D0302101FB00601B0543EA0C4343EA4753DC
S315080026E022F00302C0F860E0C3650267FFF765FBE6
S315080026F0736D2B437365237A13B1336C2B433364A1
S31508002700637A13B1B36B2B43B3632279A37943EA94
S315080027100243074A93616179E37943EA014306492B
S315080027208B61044B55639D64BDE8F041FFF74BBBD5
S3150800273000200450000004500010045010B5012475
S31508002740C0B28440FFF739FB044B5A6D22EA0402F3
S315080027505A659C62BDE81040FFF735BB000004507F
S3150800276038B50546144621B94FF42070FEF7EAFC41
S31508002770014601396400B1FBF4F10902E96138BD8B
S31508002780012200F580535A60CB43934003F00A03B5
S315080027904361416111B900F500504260704700007D
S315080027A0012100F5805310B5596040F6AA6341F23D
S315080027B0050243610023094C8360C365C26000F5C6
S315080027C000520361C361C3649464054C8365A042E7
S315080027D004BF03654365516010BD00BFFFFF0100DC
S315080027E000C0055038B50D46FFF7DAFF0122A97B70
S315080027F000F580535A602A8A8368002914BF4FF46B
S315080028008061002142F0010213432A7D0B43002A0E
S3150800281014BF4FF0005200228360836804461343B6
S315080028208360AB7C5BB1194B984202BFEA7CA3F587
S315080028301033C3F8C821C36D43F08003C3652B7BEF
S315080028402046D5E9011243F48053E360FFF788FF79
S315080028506B7B0BB1102363616B7D1BB1A36843F4DB
S315080028608033A360AB7D1BB1A36843F40043A36028
S31508002870EB7D2A7E1B07120503F0E04302F4E00213
S315080028801343A3652B78636138BD00BF00C00550AC
S31508002890002370B50C460E780B700546FFF7A2FFAD
S315080028A094F82020A38B94F821001343A27F002AD2
S315080028B0E27F14BF10210021002A14BF082200223B
S315080028C0002814BF0220002003430B43134343F0A0
S315080028D001036B652EB131462846BDE87040FFF707
S315080028E04FBF70BD054B9A689107FCD45A6892078A
S315080028F0F9D4DA69002AF6D1704700BF00800A5079
S3150800290008B5FFF7EFFF0122024B03F580514A6035
S315080029101A6108BD00800A50074B5A68012A0AD175
S315080029205A68D20702D5DA69002AF9D102221A6151
S315080029300122024B5A60704700800A5000A00A50D4
S3150800294010B5064CFFF7CEFF6368012B03D1FFF7DE
S31508002950E3FFFFF7C7FF0378E36010BD00800A5066
S31508002960E8B94A680B7812B1127843EAC2034A7882
S31508002970002A14BF0222002213438A6812B1127871
S3150800298043EA82138A78002A14BF042200221343DA
S31508002990CA6812B1127843EA4223014A936470471F
S315080029A000800A5008B9014B5964704700900A50D4
S315080029B008B9014B5964704700A00A5008B9014B81
S315080029C01964704700A00A5010B9024B186C70477A
S315080029D00020704700800A5048B911B1012903D078
S315080029E07047044BD86C7047024B186D704700202F
S315080029F0704700BF00800A5040B911B1012903D0C1
S31508002A007047034BDA647047014B1A65704700BF7D
S31508002A1000800A5007B5094B18689A889B79009078
S31508002A206846ADF804208DF80630FFF773FA0C20D7
S31508002A30FFF7A8FA002003B05DF804FBD4DE00080F
S31508002A4013B50024064A6846536F43F001035367DB
S31508002A5000948DF80440FFF7C1F9204602B010BD76
S31508002A600040005030B58BB06C46154D0FCD0FC4E5
S31508002A700FCD0FC495E8030084E80300114BD3F883
S31508002A804C21120314D4D3F85041E4B28DF81940FE
S31508002A90FEF76AFE204480F308008DF818000A48FD
S31508002AA0FDF72EFF6846FEF7A3FD00200BB030BDEC
S31508002AB0064B1C884FF6FF739C4208BF8C24E5E73B
S31508002AC0DCDE00080080E00FC01753020001E00FAB
S31508002AD030B5094D87B001AC0FCD0FC42B6801A8DE
S31508002AE023603F238DF80530FEF744FE6420FEF789
S31508002AF07FFE002007B030BD04DF00086FF0040237
S31508002B00502110B50A480B4C12F0800FD3B21BBFE8
S31508002B1003F00F03043BA3181B1802F101020CBFB4
S31508002B2083F8001319764C2AEED1002010BD00BF99
S31508002B3000ED00E000E100E010B50446FFF736F9C5
S31508002B40024B1C60FFF736F9002010BD60230020F9
S31508002B5010B5FFF72BF9034B1C68FFF72BF9204636
S31508002B6010BD00BF6023002007B530B9CDE90012BB
S31508002B70FFF7EEFFDDE9001230B1436823B10068C4
S31508002B8003B05DF804EB1847232003B05DF804FB97
S31508002B9030B51C4685B058B9CDE90012FFF7D8FF05
S31508002BA0DDE9001204B903AC20B9232005B030BD15
S31508002BB003B903AC8568002DF7D023460068A847FB
S31508002BC0F4E70422C36A03F580531A65704710B503
S31508002BD00446C26A936C5906FCD50023A16B1A46B3
S31508002BE094F83400FFF7EAFC0023216C1A4694F89F
S31508002BF03C00FFF7E3FC94F85430DA0706D50023C7
S31508002C00A16C1A4694F84400FFF7D8FC94F854309F
S31508002C109B0706D50023216D1A4694F84C00FFF74A
S31508002C20CDFCE06A0021FFF743FA206B0021FEF78E
S31508002C306DFA002010BD08B5C06AFFF744FA0020F7
S31508002C4008BD00002DE9F0418AB01C4606AB0646D1
S31508002C5088461846174600211022109D01F05EF896
S31508002C60227903460AB18DF81820FB61637930464C
S31508002C70002B14BF01230223CDE903336B4B4246D5
S31508002C8002936B4B2946019300230093694B00F08E
S31508002C90B3F90646002840F09B80A36801212B6300
S31508002CA0E3693A202B64237E85F83C306369AB637D
S31508002CB0237C85F83430636AAB6494F8203085F851
S31508002CC04430E36A2B6594F8283085F84C3023683D
S31508002CD0EB62FEF71BFA012304226169207CFFF7E9
S31508002CE06DFC01230222E169207EFFF767FC3E7036
S31508002CF085F854600121A068FEF708FA63793BBBA2
S31508002D0001213620FEF702FA0A21A068FEF700FE26
S31508002D1039462068FFF786FB1021E268464B67694B
S31508002D2003EB4210C0F89414217C253241EA07418E
S31508002D30C0F8AC14217EE06903EB421341EA004176
S31508002D4059602379032B6FD8DFE803F0371A4666F4
S31508002D5005214FF44060FEF7DBFDA368562B04D12E
S31508002D6012214FF4A060FEF7D3FD39462068FFF71D
S31508002D7055FB95F8543043F0040385F85430CBE7F7
S31508002D8095F8543043F0010385F8543000250023A4
S31508002D900222616A94F82000FFF710FC616A94F831
S31508002DA02020E36842EA014241F29C415B0103F1BB
S31508002DB0A04303F570335A50A5B9042320680521AA
S31508002DC000F50052D36400F580521365FFF770F9D9
S31508002DD030460AB0BDE8F08195F8543043F0020356
S31508002DE085F8543000230422E16A94F82800FFF796
S31508002DF0E5FB41F294420221E3685B0103F1A0433B
S31508002E0003F57033995094F82820E16A03F5A55321
S31508002E1042EA01421A60D0E795F8543043F00303BA
S31508002E2085F854300125B2E72326D1E7CF2B0008D1
S31508002E30C32B0008372C000800C00350C26A10B51F
S31508002E40136DD26C044613405B070ED500F02AF9C1
S31508002E5060B1E06AFFF731F90146204600F032F921
S31508002E600422E36A03F50053DA6410BD0422E36A18
S31508002E7003F500531A65F8E700207047FEE74FF49C
S31508002E80005300204B6070470120704700207047B0
S31508002E9007B5002001AB0190FFF77AFE01980028DC
S31508002EA008BF4FF0FF3003B05DF804FB10B51446B9
S31508002EB00020FFF759FE204610BD80F82410704701
S31508002EC090F82400704770B504460568FFF740FE81
S31508002ED0844202D10020FFF72FFE95F92830002BF7
S31508002EE011DB012203F01F015B099B0003F160431C
S31508002EF08A4003F56143C3F88021C3F88020BFF3F5
S31508002F004F8FBFF36F8F00232846C4E90033C4E907
S31508002F100433A360EB68BDE87040184790F8243086
S31508002F2070B505460C468E18E3B9A6420AD095F840
S31508002F302630002BF9D028462B6814F8011B984731
S31508002F400028F2D070BD95F826305BB123780A2B9D
S31508002F5003D10D2128462B68984728462B6814F874
S31508002F60011B9847B442EED1ECE72DE9F7434FF041
S31508002F700009044690461E46C3F800904F1E336863
S31508002F80434505D2FEF719FFA269C2B9FEF71BFF32
S31508002F9094F827305BB91123012220460DF1070169
S31508002FA08DF80730FFF7BAFF012384F82730336816
S31508002FB0002B0CBF1B20002003B0BDE8F083E1699D
S31508002FC022698A5C07F8012F2569226A013595422C
S31508002FD008BF4D46A2692561013AA261FEF7F3FED4
S31508002FE0A36820469847336801333360C7E708B5B6
S31508002FF0FFF794FF002008BDF8B51F46536805463D
S315080030000C461646002B3ED09368002B3DD02C224A
S315080030100021204600F082FE73681D4AE361B3680A
S315080030202362337B84F82430B37B276084F8253009
S3150800303040F20113E384069B6360079BA360089B29
S31508003040E36096F9003084F828306A60114A002B4C
S31508003050AA60114A2C602A61104A6A61104AEA601D
S315080030600CDB012203F01F015B099B0003F160439F
S315080030708A4003F56143C3F880211A602846FFF7A2
S315080030805BFD0020F8BD2220FCE72120FAE700BFFF
S31508003090EF2F00086B2F0008BB2E0008C12E000872
S315080030A0C72E000810B50446FEF787FEA269236AF4
S315080030B09A4203D2FEF787FE012010BDFEF783FE73
S315080030C00020FAE737B504460D4600E000BFFEF7D4
S315080030D074FE94F8253002466BB1132D07D10023F0
S315080030E084F8263003B0BDE83040FEF76CBE112DDB
S315080030F001D10123F4E76369E1691046CD54A1695A
S3150800310063690131A161216A01338B42636104BF9E
S3150800311000236361FEF757FEA269236A9A420BD120
S315080031201323012220460DF107018DF80730FFF71A
S31508003130F5FE002384F8273003B030BD30B50F4CB8
S3150800314041612368ABB92060836011E0891A9A68E7
S315080031501D4641612AB113465A698A42F6D955B1C4
S315080031601A461346A860836013B15A69511A596101
S3150800317030BD0025F0E72060F5E700BF7C2300207E
S3150800318010B500F07BF90A4C0A4B19682368C31A74
S3150800319001B10BB9206010BD4A699A423ABF9B1A21
S315080031A00022D21A4A6128BF00238968F0E700BFC7
S315080031B0682300207C23002038B5134D2B685B69F3
S315080031C093B1124A022014681C4400F063F92046A1
S315080031D000F06AF900230E492A680B70D088800728
S315080031E009D501230B7038BD022000F053F90220DF
S315080031F000F0A8F9EEE79268002AF4D05069034473
S31508003200012BEBD9EFE700BF7C23002068230020C1
S315080032107023002000220C490B687BB183420AD137
S3150800322083687AB1936083681BB15A6941690A4415
S315080032305A61002070471A469B68EEE70028EFD0CF
S31508003240022070470B60EEE77C23002070B5FEF77E
S31508003250B4FD144E05463478FCB9134B1C60134B69
S315080032601C60134B1C8000F0D7F8012000F012F9FF
S3150800327000F08AF90F4B0246186020B92846FEF777
S31508003280A2FD232070BD234640F2E7310A4800F02C
S315080032907DFB0A4B1860012333702846FEF793FD21
S315080032A00020EFE7642300207C2300206823002009
S315080032B0722300207823002018FCFFFF6C230020CF
S315080032C038B5FEF77AFD054600F0D8F804462846D4
S315080032D0FEF779FD204638BD044B1B6858434FF46A
S315080032E07A7300F2E730B0FBF3F0704778230020DA
S315080032F0C2072DE9F34704460BD53F4A1388013325
S315080033009BB21380FFF73CFF3C4B1B680BB1FFF7E2
S3150800331053FFA3076DD5FEF750FD00260546374631
S31508003320FFF72EFFB146DFF8D480D8F800400CB17D
S3150800333063698BB10022324B012F1A7002D1022E1B
S3150800334008BF1F70002C44D0FFF736FF284602B08E
S31508003350BDE8F047FEF737BD23461A792179914231
S3150800336088BF1C469B6813B15A69002AF5D02846BF
S31508003370FEF729FD256985B300F080F8A269861A4B
S31508003380F317B54279EB030328DA23691344A361DB
S315080033900123226982B17BB9A91B0191FEF70DFDB4
S315080033A0824601992046FFF7C9FEA369226950465D
S315080033B01344A361FEF707FDE368E688013713B1F6
S315080033C0204621689847FEF7F8FC0546FFF7D8FE21
S315080033D0ABE7022000F0A0F8B8E72E46FEF7EDFCB2
S315080033E082462046FFF716FF5046FEF7ECFC002300
S315080033F0CFE702B0BDE8F087722300207C230020C7
S3150800340074230020034B5A68D20702D5DA69002ACA
S31508003410F9D1704700800A5010B50121002486B002
S315080034203E20ADF80810CDE903448DF804408DF828
S315080034300A400594FDF76AFE01A8FFF781FA2046BF
S3150800344002A98DF80840FFF78BFA20460F21FFF7EF
S31508003450AFFA0F212046FFF7B1FAFFF751FAFFF747
S31508003460D1FF0822034B9C61034BC3F888219A605D
S3150800347006B010BD00800A5000E100E008B5FFF76D
S31508003480C1FF014B986908BD00800A500021084613
S31508003490FFF7A2BA00F00101830748BF41F0020115
S315080034A00020FFF77FBA0000F8B50446FEF77EFC59
S315080034B0FFF7A8FF164B07469D69FFF7E7FF064685
S315080034C00020FFF781FA830704D4731B032B01D866
S315080034D0AE420FD10021631B022B98BFEC1C084695
S315080034E0B4F1FF3F2CBF2246621EFFF785FA022081
S315080034F0FFF7D0FF3846FEF75DFC064A137833B16E
S3150800350003498B6C43F001038B6400231370F8BDE9
S3150800351000800A5078200020830700F0010109D5B1
S315080035200122064B41F002011A70054A936C23F0FA
S31508003530010393640020FFF73BBA00BF7820002000
S3150800354000800A50830742BF0222014B1A64704763
S3150800355000900A5038B5FEF730FC04460020FFF705
S3150800356033FA830700F0010548BF45F0020500F06D
S3150800357003010020FFF722FA2846FFF7B9FE204686
S31508003580BDE83840FEF71FBC3E20FDF7DBBD08B599
S3150800359000F03CF900F04DF900F04DF900F054F94F
S315080035A0BDE8084000F051B908B500F04FF900F041
S315080035B04EF900F04DF9BDE8084000F04AB90000A0
S315080035C010B50446FDF780F90C4BA0F57A729A42BD
S315080035D012D84FF47A73B0FBF3F05C43084BB3FB95
S315080035E0F0F0B4FBF0F0022806D9BDE8104003233A
S315080035F0B0FBF3F000F00CB810BD00BFFFC99A3B52
S3150800360040420F000000000000000000000000001B
S31508003610013800D0FCE7704770B50446FFF750FE46
S3150800362010490546204601F025FCFFF749FE0E49DC
S315080036300E4C0A682668531E06FB0303581BB0FB8C
S31508003640F2F0013220600F200A60FFF745FE642180
S315080036502368BDE870405943B1FBF0F1044800F017
S3150800366065BB00BF753600087C200020802300203B
S3150800367018DF000837B5018AFD2937D029B11C485B
S3150800368003B0BDE8304000F051BB4389052B20D874
S31508003690184A012B52F823201DD0A3F1030CDCF1A4
S315080036A0000545EB0C05012B16D0191F4C424C4161
S315080036B0818900910168104800F038FB0F486DB108
S315080036C0FDF785F90E4864B103B0BDE83040FDF753
S315080036D07EB90C4AE1E71D461C46E9E7FDF77AF98B
S315080036E0F0E703B0BDE83040FDF774B903B030BD6C
S315080036F04CDF00088020002057DF0008CC2E020887
S31508003700E42E020844DF000808B51D4800F094FBC3
S315080037101C4800F091FB1C4800F08EFB194800F08D
S315080037208BFB0020FDF70EFD0146184800F0FEFA57
S315080037304FF47A51164800F0F9FA1649164800F07F
S31508003740F5FA104800F078FB002314491A46144885
S3150800375001F046FB014668B9FFF778FD01214FF4F1
S315080037607A50FCF799FDBDE80840F0210D4A0E484D
S31508003770FCF77EBE0D48BDE8084000F0D7BA00BF8A
S315080037800FE000088DDF0008BEDF0008EFDF000845
S3150800379011E0000833E0000845E00008A824020804
S315080037A0C4E0000819360008842300205DE00008FC
S315080037B0FEE708B5FFF7EBFEFFF7A6FFFFF7F4FEF7
S315080037C0FFF7F6FFFAE7704708B503218020FEF7F2
S315080037D09FF803214FF48060FEF79AF809214FF409
S315080037E0C060FEF795F809214FF4F060FEF790F8EF
S315080037F009213E20FEF78CF809212D20FEF788F8CE
S3150800380009215120FEF784F8002008BD08B5FFF706
S3150800381075F9FCF73DFDFFF7FDF8FFF723F9FFF70C
S3150800382057F9FFF7D1FFFFF70BF9BDE80840FCF79A
S3150800383021BD00F04DB808B5FCF7F8FCFFF706FD0A
S31508003840BDE8084000F03AB87047704770477047BF
S315080038507047704770B5154E9AB0354606AC0FCD11
S315080038600FC495E80F0084E80F002C2200210FA84A
S3150800387000F054FA0E4B02AC0E9301238DF83D303E
S3150800388056231093052313930623159306F1200355
S315080038900FCB84E80F00074B2146009306AA0EAB10
S315080038A00548FFF7CFF91AB070BD00BF9C2E020875
S315080038B00000015B44270020BC270020FFF7CABF91
S315080038C0014B1868FFF7BABABC270020FFF7F8BF04
S315080038D008B50448FDF778F8BDE808400248FDF742
S315080038E073B800BFCC2E0208E42E02087BB972B961
S315080038F00029BEBF00204FF0004106E008BF00289F
S315080039001CBF6FF000414FF0FF3000F0CDB9ADF1AC
S31508003910080C6DE904CE002909DB002B1ADB00F040
S315080039204DF8DDF804E0DDE9022304B070474042B3
S3150800393061EB4101002B1BDB00F040F8DDF804E0E9
S31508003940DDE9022304B0404261EB4101524263EBD8
S3150800395043037047524263EB430300F02FF8DDF848
S3150800396004E0DDE9022304B0404261EB41017047FF
S31508003970524263EB430300F021F8DDF804E0DDE989
S31508003980022304B0524263EB4303704753B94AB962
S31508003990002908BF00281CBF4FF0FF314FF0FF3049
S315080039A000F082B9ADF1080C6DE904CE00F006F816
S315080039B0DDF804E0DDE9022304B070472DE9F04F95
S315080039C0099D04460F46002B48D18A42944661D980
S315080039D0B2FA82F343B1C3F120019F4002FA03FC15
S315080039E09C4020FA01F10F434FEA1C411FFA8CFE56
S315080039F0220CB7FBF1F601FB167706FB0EF042EA3E
S31508003A000742904208D91CEB020206F1FF3702D2A0
S31508003A10904200F237813E46121AA4B2B2FBF1F088
S31508003A2001FB102200FB0EFE44EA0244A64508D913
S31508003A301CEB040400F1FF3202D2A64500F21C81F9
S31508003A40104640EA0640A4EB0E0400261DB1DC40F1
S31508003A500023C5E900433146BDE8F08F8B4209D9FA
S31508003A60002D00F0FD800026C5E9000130463146EC
S31508003A70BDE8F08FB3FA83F6002E4BD18B42C0F027
S31508003A80F280824240F2EF803046002DE3D0C5E94D
S31508003A900047E0E702B9FFDEB2FA82F3002B40F0F6
S31508003AA09D80891A4FEA124E97B20126200CB1FB67
S31508003AB0FEF20EFB121140EA014107FB02F08842B2
S31508003AC00FD91CEB010102F1FF382CBF4FF0010999
S31508003AD04FF00009884203D9B9F1000F00F0CF80F2
S31508003AE04246091AA4B2B1FBFEF00EFB101100FB08
S31508003AF007F744EA0144A74208D91CEB040400F17D
S31508003B00FF3102D2A74200F2B4800846E41B40EA1D
S31508003B1002409BE7C6F12007B34001FA06F422FAF1
S31508003B2007FCF940B2404CEA030C20FA07F34FEAC7
S31508003B301C491C431FFA8CFE00FA06F3200CB1FB45
S31508003B40F9F809FB181140EA014108FB0EF0884212
S31508003B500FD91CEB010108F1FF3A2CBF4FF0010BFE
S31508003B604FF0000B884203D9BBF1000F00F08D809F
S31508003B70D046091AA4B2B1FBF9F009FB101100FBF3
S31508003B800EFE44EA01418E4507D91CEB010100F1FE
S31508003B90FF3401D28E457FD8204640EA0840A1EB83
S31508003BA00E01A0FB029841454C46C64602D306D1F3
S31508003BB04B4504D20138B9EB020468EB0C0E002D14
S31508003BC070D01A1B61EB0E0122FA06F301FA07F709
S31508003BD0F14000261F43C5E900713CE702FA03FCE1
S31508003BE0C3F1200001FA03F221FA00F64FEA1C4E4F
S31508003BF024FA00F11FFA8CF79C401143B6FBFEF03D
S31508003C000A0C0EFB106642EA064200FB07F69642CD
S31508003C100ED91CEB020200F1FF382CBF4FF0010948
S31508003C204FF00009964202D9B9F1000F31D040464B
S31508003C30921B89B2B2FBFEF60EFB162241EA02413E
S31508003C4006FB07F28A4207D91CEB010106F1FF3889
S31508003C5001D28A4223D84646891A46EA004625E70B
S31508003C602E462846F7E6841A61EB030301201F4611
S31508003C700BE76444023849E764440238E1E6023A4D
S31508003C8061442EE7023E6244C6E6A8F10208614492
S31508003C906FE702386244CBE7023861447DE7023EAB
S31508003CA06144D9E72E46D6E6704700BF08B5074BEC
S31508003CB0044613B1002100E000BF054B1868836A6B
S31508003CC003B198472046FFF7D9F800BF0000000067
S31508003CD0FC2E020870B50D4D00260D4C641BA41071
S31508003CE0A64209D10B4D00260B4C0AF093F8641B2B
S31508003CF0A410A64205D170BD55F8043B0136984775
S31508003D00EEE755F8043B01369847F2E7882100208C
S31508003D1088210020882100208C21002002440346A7
S31508003D20934200D1704703F8011BF9E70FB40A4B19
S31508003D3013B51C6824B1A36913B9204600F05CFAD0
S31508003D4005AB049AA1682046019300F065FC02B011
S31508003D50BDE8104004B07047A020002070B50E469C
S31508003D60054618B183690BB900F046FAAB69AC6829
S31508003D7013B9284600F040FA2C4B9C4220D16C68B7
S31508003D80636EDB0705D4A389980502D4A06D00F0FD
S31508003D90D1FAA38919071DD52369DBB1013EA368AA
S31508003DA016F8011F013BA36039BB002B38DA2246FF
S31508003DB00A21284600F048F8013011D00A2511E0FA
S31508003DC01B4B9C4201D1AC68DAE71A4B9C4208BFF0
S31508003DD0EC68D5E72146284600F088F80028DDD0AB
S31508003DE04FF0FF35636EDA0705D4A3899B0502D425
S31508003DF0A06D00F0A0FA284670BD002B04DAA2696F
S31508003E009A4206DC0A2904D023685A1C22601970D3
S31508003E10C5E72246284600F017F80130BFD1DFE78C
S31508003E2023680A255A1C22601D70DBE7202F02082A
S31508003E30402F0208002F0208024B01461868FFF7B8
S31508003E408DBF00BFA0200020F8B50E4614460546D3
S31508003E5018B183690BB900F0CFF9214B9C422BD1DD
S31508003E606C68A369A360A3891A072FD523696BB366
S31508003E702369F6B220683746C01A6369834204DCB0
S31508003E802146284600F024F930BBA3680130013BDF
S31508003E90A36023685A1C22601E706369834204D09B
S31508003EA0A389DB0706D50A2E04D12146284600F049
S31508003EB00FF988B93846F8BD0A4B9C4201D1AC685F
S31508003EC0CFE7094B9C4208BFEC68CAE7214628465B
S31508003ED000F00CF80028CBD04FF0FF37EAE700BF18
S31508003EE0202F0208402F0208002F0208324B70B517
S31508003EF01D6806460C4625B1AB6913B9284600F07D
S31508003F007BF92E4B9C420FD16C68A389B4F90C201F
S31508003F1019072CD4DD0611D40923336042F0400377
S31508003F204FF0FF30A3813EE0254B9C4201D1AC689F
S31508003F30EBE7244B9C4208BFEC68E6E7580712D526
S31508003F40616B41B104F14403994202D0304600F056
S31508003F5059FA00236363A38923F02403A38100236A
S31508003F60636023692360A38943F00803A381236957
S31508003F704BB9A38903F42073B3F5007F03D0214618
S31508003F80304600F0FFF9A089B4F90C2010F00103BF
S31508003F900AD00023A36063695B42A361236943B91E
S31508003FA010F08000BAD170BD810758BF6369A3605D
S31508003FB0F4E70020F7E700BFA0200020202F020822
S31508003FC0402F0208002F02088A892DE9F04105468C
S31508003FD010070C4658D44B68002B05DC0B6C002BDD
S31508003FE002DC0020BDE8F081E66A002EF9D0002345
S31508003FF012F480522F682B6032D0606DA3895A075D
S3150800400005D56368C01A636B0BB1236CC01A00230D
S315080040100246E66A2846216AB047431CA38906D1A8
S3150800402029681D292CD8294ACA40D60728D500222E
S31508004030D90462602269226004D5421C01D12B682A
S3150800404003B96065616B2F600029CAD004F1440387
S31508004050994202D0284600F0D5F900206063C1E7EE
S31508004060216A01232846B047411CC7D12B68002B7B
S31508004070C4D01D2B01D0162B01D12F60B1E7A3891F
S3150800408043F04003A381ADE70F69002FA9D093073A
S315080040900E680F600CBF4B690023A6EB07088B6000
S315080040A0B8F1000F9DDD43463A46216A2846A66ABE
S315080040B0B047002806DCA3894FF0FF3043F04003E1
S315080040C0A3818FE70744A8EB0008E9E70100402031
S315080040D038B50B6905460C4613B90025284638BD80
S315080040E018B183690BB900F087F8144B9C421BD1B1
S315080040F06C68B4F90C30002BEFD0626ED00704D48C
S31508004100990502D4A06D00F015F928462146FFF757
S315080041105BFF636E0546DA07E0D4A3899B05DDD409
S31508004120A06D00F008F9D9E7054B9C4201D1AC68AF
S31508004130DFE7044B9C4208BFEC68DAE7202F020849
S31508004140402F0208002F0208002310B5044683609A
S31508004150818119464366C28108228361C0E900331A
S31508004160C0E904335C30FFF7D9FD054B246263626E
S31508004170044BA362044BE362044B236310BD00BFE8
S31508004180C54B0008EB4B0008234C0008474C0008B9
S31508004190014900F0AFB800BFD140000870B56822E9
S315080041A04D1E0E46554305F1740100F097F9044675
S315080041B040B1002105F16802C0E900160C30A06084
S315080041C0FFF7ACFD204670BD014800F0B3B800BF4C
S315080041D0D5270020014800F0AEB800BFD52700203B
S315080041E0014800F0A7B800BFD6270020014800F014
S315080041F0A2B800BFD627002010B50446FFF7F0FF87
S31508004200A3691BB1BDE81040FFF7F0BFC4E912333C
S3150800421023652046124B134A1B68A262A34204BFB9
S315080042200123A36100F020F86060204600F01CF826
S31508004230A060204600F018F800220421E0606068BB
S31508004240FFF782FF01220921A068FFF77DFF0222FE
S315080042501221E068FFF778FF0123A361D2E700BFC8
S31508004260FC2E020891410008F8B50746FFF7ACFF97
S315080042701E4B1E68B36913B93046FFF7BDFF4836B3
S31508004280D6E90134013B03D533680BB33668F7E743
S31508004290B4F90C50D5B9164B04F158006566E360BD
S315080042A000F047F8FFF796FF0822294604F15C005C
S315080042B02560A561C4E90155C4E90455FFF72EFD3B
S315080042C0C4E90D55C4E912552046F8BD6834D9E746
S315080042D004213846FFF762FF044630600028D5D12E
S315080042E0FFF778FF0C233B60EEE700BFFC2E0208C1
S315080042F00100FFFF2DE9F8430646884600F1480409
S315080043000027D4E90195B9F1010905D52468002CDF
S31508004310F7D13846BDE8F883AB89012B07D9B5F93B
S315080043200E30013303D029463046C0470743683567
S31508004330E9E770477047704770B50E46B1F90E1039
S3150800434096B0144600291D4608DAB6F90C30002244
S315080043502A601A0610D44FF480630EE06A4600F00D
S3150800436099FC0028F1DB019A02F47042A2F5005389
S315080043705A425A412A60EEE740230020236016B0CD
S3150800438070BD00008B8973B59D0706460C4607D598
S3150800439004F14703236023610123636102B070BD02
S315080043A001AB6A46FFF7C8FF00990546304600F09C
S315080043B095F848B9B4F90C309A05EFD423F00303FD
S315080043C043F00203A381E3E70D4BB362A3892060A0
S315080043D043F080032061A381009B6361019B5BB16D
S315080043E0B4F90E10304600F067FC28B1A38923F013
S315080043F0030343F00103A381A0890543A581CDE703
S315080044009141000837B5002943D051F8043C0C1FE8
S315080044100190002BB8BFE41800F08CFC1E4A0198E6
S31508004420136833B96360146003B0BDE8304000F028
S3150800443087BCA34208D9256861198B4201BF196850
S315080044405B6849192160EDE71A465B680BB1A34220
S31508004450FAD911685518A5420BD124682144541875
S315080044601160A342E0D11C685B6821445360116067
S31508004470DAE702D90C230360D6E7256861198B426F
S3150800448002BF19685B684919636008BF21605460F8
S31508004490CAE703B030BD00BFD827002070B50E4E5E
S315080044A00C460546316811B900F07CFB30602146A0
S315080044B0284600F077FB431C0AD0C41C24F00304EA
S315080044C0A04207D0211A284600F06CFB013001D122
S315080044D04FF0FF34204670BDDC2700202DE9F0415F
S315080044E0CD1C074625F0030508350C2D38BF0C25CD
S315080044F0002D01DBA94205D90C2300263B60304676
S31508004500BDE8F0812E4E00F015FC33681C4634BB1E
S3150800451029463846FFF7C2FF431C04464DD1346886
S315080045202646002E40D123683146384604EB030858
S3150800453000F038FB80453AD12168033538466D1AB4
S3150800454025F0030508350C2D38BF0C252946FFF73D
S31508004550A5FF01302BD023682B4423600EE0226888
S31508004560521B1ED40B2A16D96119A342256018BFFF
S315080045705960636808BF316062514B6004F10B06ED
S31508004580384600F0DDFB231D26F00706F21AB6D0E2
S315080045909B1BA350B3E76268A3420CBF32605A6004
S315080045A0ECE723466468B2E734467668B9E70C2335
S315080045B038463B6000F0C4FBA1E72560DEE700BF94
S315080045C0D82700209368013B002B936010B408DAC3
S315080045D09469A34201DB0A2903D15DF8044BFFF76E
S315080045E033BC1368581C1060084619705DF8044BF4
S315080045F07047F8B506460F461446D518AC4201D1A1
S31508004600002007E03A4614F8011B3046FFF7DAFFA8
S31508004610431CF3D1F8BD00002DE9F04F0D469DB0BF
S3150800462014469846064618B183690BB9FFF7E4FDA8
S31508004630894B9D421BD175686B6ED90705D4AB892A
S315080046409A0502D4A86DFFF775FEAB891B0701D53D
S315080046502B69EBB929463046FFF748FCC0B16B6EAB
S31508004660DC070ED54FF0FF301DB0BDE8F08F7B4B51
S315080046709D4201D1B568DFE7794B9D4208BFF568D1
S31508004680DAE7AB899805EDD4A86DFFF754FEE9E79C
S315080046900023CDF80C804FF00109DFF8C881099393
S315080046A020238DF8293030238DF82A3023469A4660
S315080046B013F8012B0AB1252AF9D1BAEB040B0BD052
S315080046C05B46224629463046FFF793FF013000F045
S315080046D0AA80099A5A4409929AF80030002B00F0E9
S315080046E0A28000234FF0FF320AF1010A04930793D0
S315080046F08DF853301A93CDE90523544605225948B7
S3150800470014F8011B00F0FAFA049AD8B9D10644BF86
S3150800471020238DF85330130744BF2B238DF85330CD
S315080047209AF800302A2B15D0079A544600204FF0E5
S315080047300A0C214611F8013B303B092B4ED9B0B182
S31508004740079214E0A0EB0803A24609FA03F3134301
S315080047500493D2E7039B191D1B68002B0391BBBF6B
S315080047605B4242F0020207930793B8BF049223788C
S315080047702E2B0CD163782A2B35D1039B02341A1DB4
S315080047801B68002B0392B8BF4FF0FF330593DFF881
S31508004790E4A003222178504600F0B0FA40B1402345
S315080047A0A0EB0A00013403FA00F0049B03430493C8
S315080047B014F8011B06222C488DF8281000F09EFAE2
S315080047C000283FD0294B1BBB039B073323F0070365
S315080047D008330393099B3B44099367E70CFB0232B2
S315080047E00C460120A5E7002301344FF00A0C1946B0
S315080047F00593204610F8012B303A092A03D9002BD5
S31508004800C5D00591C3E70CFB012104460123F0E757
S3150800481003AB2A4604A930460093154B00E000BFB7
S315080048200746781CD6D16B6ED90705D4AB899A058D
S3150800483002D4A86DFFF77FFDAB895B063FF512AF83
S31508004840099811E703AB2A4604A930460093084B9A
S3150800485000F082F8E4E700BF202F0208402F020884
S31508004860002F0208602F02086A2F020800000000C5
S31508004870F3450008662F02082DE9F04716469946C3
S315080048808A6807460B690C46DDF820809342B8BF54
S315080048901346336091F843200AB101333360236825
S315080048A0990642BF336802333360256815F006055A
S315080048B006D104F1190AE36832689B1AAB4229DC6F
S315080048C094F84320131E226818BF012392062ED49B
S315080048D004F1430249463846C047013021D02368CF
S315080048E01A3454F80E5C03F0060332680026042BCB
S315080048F054F8123C08BFAD1A54F80A2C14BF002508
S3150800490025EAE5759342C4BF9B1AED18B5421AD13C
S31508004910002008E00123524649463846C047013080
S3150800492003D14FF0FF30BDE8F0870135C3E7E11842
S315080049305A1C30200233224481F8430094F845106B
S3150800494082F84310C4E70123224649463846C04741
S315080049500130E6D00136D9E72DE9FF470F7E9146AB
S3150800496080460C46782F9A460C9D01F1430207D8DB
S31508004970622F0AD8002F00F0D880582F00F0A380A5
S3150800498004F1420584F842703AE0A7F16303152B57
S31508004990F6D801A151F823F0F1490008054A0008A4
S315080049A081490008814900088149000881490008B1
S315080049B0054A00088149000881490008814900081C
S315080049C081490008114B0008354A0008F34A0008D7
S315080049D08149000881490008334B000881490008CD
S315080049E0354A00088149000881490008FB4A000841
S315080049F02B681A1D1B682A6004F1420584F84230A8
S31508004A000123A3E020682968060601F104030AD5F4
S31508004A100E682B60002E03DA2D23764284F8433085
S31508004A205E480A2319E00E6810F0400F2B6018BF85
S31508004A3036B2EFE72B682068191D2960010601D5F3
S31508004A401E6802E04606FBD51E886F2F53480CBF2A
S31508004A5008230A23002184F843106568002DA56001
S31508004A60A2BF216821F0040121600EB9002D4DD0A6
S31508004A701546B6FBF3F103FB1167C75D05F8017D23
S31508004A8037460E46BB42F4D9082B0BD12368DE07FE
S31508004A9008D5236961689942DEBF302305F8013CD1
S31508004AA005F1FF35521B22614B4603AA21464046B3
S31508004AB0CDF800A0FFF7E0FE01304CD14FF0FF30F3
S31508004AC004B0BDE8F087354881F845702968236841
S31508004AD051F8046B29601D0614D5DF0744BF43F05F
S31508004AE0200323601EB9236823F0200323601023C4
S31508004AF0B0E7236843F0200323607823284884F826
S31508004B004530E3E7590648BFB6B2E6E71546BBE7C0
S31508004B102B682668181D6169286035061B6801D54B
S31508004B20196002E07006FBD519800023154623613B
S31508004B30BAE72B6800211A1D2A601D686268284694
S31508004B4000F0DCF808B1401B60606368236100234D
S31508004B5084F84330A8E723692A4649464046D047A1
S31508004B600130ABD023689B0713D4E068039B9842B7
S31508004B70B8BF1846A4E70123324649464046D047FF
S31508004B8001309BD00135E36803995B1AAB42F2DC2E
S31508004B90EBE7002504F11906F5E700BF712F0208B7
S31508004BA0822F020838B50023054D044608462B60B7
S31508004BB0FBF7F4FD431C02D12B6803B1236038BD13
S31508004BC0E027002010B50C46B1F90E1000F0EEF8FB
S31508004BD00028ABBF636DA3891B1823F48053ACBFB1
S31508004BE06365A38110BD002070472DE9F0411F467B
S31508004BF08B8905460C46DB05164605D50223002299
S31508004C00B1F90E1000F068F8A3893246B4F90E100F
S31508004C10284623F48053A3813B46BDE8F04100F0C3
S31508004C2017B810B50C46B1F90E1000F055F8431C2C
S31508004C30A38915BF606523F4805343F48053A38189
S31508004C4018BFA38110BDB1F90E1000F013B800000B
S31508004C5038B50446064D0846114600222A601A460B
S31508004C60FEF724F9431C02D12B6803B1236038BD33
S31508004C70E027002038B50023054D044608462B607A
S31508004C80FEF7FAF8431C02D12B6803B1236038BD3E
S31508004C90E027002038B50023064D0446084611468D
S31508004CA02B60FEF7ECF8431C02D12B6803B1236096
S31508004CB038BD00BFE027002038B50023054D04465F
S31508004CC008462B60FEF7E0F8431C02D12B6803B1B7
S31508004CD0236038BDE027002038B50446064D08464F
S31508004CE0114600222A601A46FEF7D0F8431C02D164
S31508004CF02B6803B1236038BDE0270020C9B20244FF
S31508004D0010B59042034601D1002303E01C78013018
S31508004D108C42F6D1184610BD0A44431E914200D172
S31508004D20704710B511F8014B914203F8014FF9D1BC
S31508004D3010BD00000148FFF7FDBA00BFD4270020C8
S31508004D400148FFF7F8BA00BFD42700202DE9F04143
S31508004D50804614460E4621B91146BDE8F041FFF7D4
S31508004D60BDBB2AB92546FFF74DFB2846BDE8F081AD
S31508004D7000F02EF88442074602D8B4EB500F12D83A
S31508004D8021464046FFF7AAFB05460028EDD0BC425F
S31508004D902246314628BF3A46FFF7BEFF314640460F
S31508004DA0FFF730FBE1E73546DFE7000038B5044694
S31508004DB0064D0846114600222A601A46FEF768F88C
S31508004DC0431C02D12B6803B1236038BDE0270020BD
S31508004DD051F8043C181F002BBCBF0B58C01870476D
S31508004DE02DE9F3410F4600211D46804616461E4C06
S31508004DF0C42220460091FEF791FF1C4B01A8A3662A
S31508004E00A4F87850C4E91587A4F86E6000F0E4FBAE
S31508004E106946204600F0E8FB019D2B0D062B1FD1A5
S31508004E20C5F30733082B1BD1C5F30B05C5B9009885
S31508004E3008F024FBC4F8A800A0B142F2607323610D
S31508004E400B4B2046E3602562A56165612560E56137
S31508004E5000F05CF8204600F065FD02B0BDE8F08180
S31508004E600120FAE7FE20F8E7E42700200600FA000A
S31508004E70A82800202DE9F041214F224CD7E900321D
S31508004E80013342F1000288462146C7E9003201F0A3
S31508004E902FF8B4F89A30064613B10023A4F89A30CE
S31508004EA0194D36BBB4F884200AB3D4F8C030002BA9
S31508004EB00DDDB4F9BC1051B932232B82114800F02C
S31508004EC0FDFF11482E82C0473046BDE8F0816A8151
S31508004ED0B4F88A20D7E90001AA81C5E90001B4F827
S31508004EE0BE20B4F89210EA8129816B61E6E7312683
S31508004EF0E4E7FD2EE5D0034800F014FDE1E700BF26
S31508004F0068770020E427002070770020202210B55B
S31508004F10002104462830FEF701FF0023C4E92733A1
S31508004F206360A384204601F098F90B4BEF3083FBAE
S31508004F3000231A18C017A369C0EBE210C0EB0010D3
S31508004F40226903EB0010904220624FF01103A4BFC0
S31508004F50801A2062E38710BD8988888810B50446C0
S31508004F6001F07BF90A4A00F1EF0382FB0312D0181D
S31508004F70DB17A2692169C3EBE013C3EB031302EB4A
S31508004F8003138B422362A4BF5B1A236210BD00BFC2
S31508004F9089888888026A43699B1A44BF02699B18F4
S31508004FA0EF2BD4BF00200120704700BF2DE9F04F3A
S31508004FB0B0F97660D0F82080C568B0F93840002E80
S31508004FC005EB48054FF0000283B0014608BF4FF4D1
S31508004FD0966605F5F07E134635F9027B2046381AA3
S31508004FE0002887EAE77CB8BF4042ACEBE77C75450A
S31508004FF03C4613FA8CF30244EED1D1F810B0B1F95D
S315080050002E50DFF8DC92B1F928400F8708F1F0003E
S315080050105845086204BF00200862C88EB1F934708A
S31508005020D21005F1010E10FB052000EB6E0090FB77
S31508005030FEF04845B8BF484647F6FF784045A8BF42
S31508005040404600B20190C886488E4FEA231A022CC1
S315080050504FEA6E0C15FB00A000F09B8084449CFB75
S31508005060FEFCCC45B8BFCC46C445A8BFC4460FFA1B
S315080050708CFCA1F832C0002F67D1B846B1F93000D0
S3150800508000EB800900EB490949F3CF09002879D0DC
S31508005090E145ACBF4FF0000C4FF0010C1B1205D0D8
S315080050A0B342C8BF48F001084CEA0803062DB1F917
S315080050B03A50D4BF0FFA8EFE4FF0100EA1F82EE02C
S315080050C0002D61D02F4600254D87B1F92C50DFF809
S315080050D010C26E1C07FB052700FB05A207EB66003E
S315080050E090FBF6F0604547F6FF7702EB6602B8BF1D
S315080050F0604692FBF6F26245B8BF6246B842A8BF60
S315080051003846BA42A8BF3A460A864A688886052DAE
S31508005110D4BF36B2C82601328E854A601BB3012C2D
S3150800512000F0AC80032C00F0A680002C00F09880DC
S31508005130A31E9BB2012B1CD8D1F8A0300120034432
S31508005140C1F8A03003B0BDE8F08F07EB87080198D7
S3150800515007EB480848F3CF084045D4BF4FF000088E
S315080051604FF001088AE7022C5FD0032C50D0012C9F
S3150800517046D0D1F89C3001330020C1F89C3003B0EA
S31508005180BDE8F08F844689E7B7EB820FC8BF4A8728
S315080051909BE7C7B9604490FBFEF04845B8BF484650
S315080051A04045A8BF40460FFA80FCA1F832C0B84671
S315080051B0B1F9300000EB800900EB4909C9EBC909D0
S315080051C049F38F1962E784449CFBFEFCCC45B8BFC3
S315080051D0CC46C445A8BFC44607EB870807EB480872
S315080051E00198C8EBC80848F38F1840450FFA8CFC9D
S315080051F0A1F832C0D4BF4FF000084FF00108D7E736
S315080052000B85D1F89C3001330020C1F89C30B6E7F5
S31508005210D1F8B030002B8FD100230B85D1F89C3004
S3150800522001330020C1F89C30A9E78A690B6A9B1AEA
S3150800523048BF5B4442F6DF6293424CDD274880FB59
S315080052400340DA170344C2EBE3139BB2A1F8B2306A
S31508005250D1F8B03003220A85002B7FF46DAFDBE767
S3150800526001230B85D1F89C30052201334A8500209D
S31508005270C1F89C3083E702230B855DE7B1F92A3034
S31508005280002B3FF476AF013B1BB24B85002B7FF416
S3150800529070AF0B6A4C69C869E41A48BF5C44001BC6
S315080052A00E4C84FB00540444C017C0EBE410B1F95B
S315080052B03E40A042A8BF2046A0EB001413EB0413FF
S315080052C048BF5B448B61D1F8A8300224121A0C85BA
S315080052D0C3F87C2E30E73223B8E700BF8988888870
S315080052E00180FFFF2DE9F043B2F846804E6D85B088
S315080052F014460546B8F1000F00F009815369DA8AA9
S315080053000F46002A51D0B4F84420012A55D0002A65
S3150800531056D06268B2F84420022A1CBF0122A7F8B8
S3150800532044201A6C276901321A64B5F8B230002B8A
S315080053304DD1396B78694FF4F072FFF7EDFC3B6B92
S31508005340F0220021284600F094FF7869396B4FF463
S31508005350907200F5F070FFF7DFFC204602F01EF8A9
S31508005360204602F09FFB00287FD094F83030DF07F4
S3150800537031D523691968B1F84E20012A00F0C0809A
S31508005380E26892F84D108D063DD55968C8073AD59A
S31508005390B4F84420013292B2012AA4F8442000F05D
S315080053A00081FD2005B0BDE8F0832269516891604F
S315080053B0D160B4F84420012AA9D10023A4F84430C6
S315080053C0284600F03FFF0028EBD06369A1E7013BC0
S315080053D0A5F8B230ADE7204602F0D4FC002844D048
S315080053E094F832000028DDD17A4B5A6812B1196850
S315080053F08A42D7D3DA68002AD4D099688A42D1D9A2
S3150800540001319960CEE7A3685B88002B3BD15168D0
S3150800541000930222204603F033F963680222A3F8B8
S315080054204420204604F0C0FBE3686268D98BB2F8D2
S3150800543060508D4238BFA2F8601000287CD193F8DE
S315080054404D20120700F19080B4F8443001339BB226
S31508005450012BA4F84430A4D12369D9685A680131CC
S315080054600132FD20D9605A609CE723695A68D968D9
S31508005470013201310125FD20D9605A60A4F8445053
S3150800548005B0BDE8F083012500275368CDE900750E
S315080054901A46A169204601F041F806F58056A36828
S315080054A0B6F956265B889B1AAB42B6DDA846CDE907
S315080054B000570023A16903AA204601F02FF8BDF979
S315080054C00C0006F067FC8146BDF90E0006F062FC8A
S315080054D0D4E902128310C3EBA900B2F85630526819
S315080054E0434403F100430233013522F813004B8885
S315080054F0B6F95626ADB29B1A9D42A846D7DB8CE76D
